{
  "contractName": "Item",
  "abi": [
    {
      "inputs": [
        {
          "internalType": "string",
          "name": "_name",
          "type": "string"
        },
        {
          "internalType": "uint256",
          "name": "_price",
          "type": "uint256"
        },
        {
          "internalType": "address",
          "name": "_itemOwner",
          "type": "address"
        },
        {
          "internalType": "uint256",
          "name": "_timeCreated",
          "type": "uint256"
        },
        {
          "internalType": "uint256",
          "name": "_index",
          "type": "uint256"
        },
        {
          "internalType": "address",
          "name": "_parent",
          "type": "address"
        },
        {
          "internalType": "uint256",
          "name": "_quantity",
          "type": "uint256"
        }
      ],
      "stateMutability": "nonpayable",
      "type": "constructor"
    },
    {
      "stateMutability": "nonpayable",
      "type": "fallback"
    },
    {
      "inputs": [
        {
          "internalType": "uint256",
          "name": "_quantity",
          "type": "uint256"
        }
      ],
      "name": "pay",
      "outputs": [],
      "stateMutability": "payable",
      "type": "function"
    },
    {
      "inputs": [
        {
          "internalType": "uint256",
          "name": "_index",
          "type": "uint256"
        },
        {
          "internalType": "address",
          "name": "_owner",
          "type": "address"
        },
        {
          "internalType": "uint256",
          "name": "_price",
          "type": "uint256"
        },
        {
          "internalType": "uint256",
          "name": "_quantity",
          "type": "uint256"
        }
      ],
      "name": "editItem",
      "outputs": [],
      "stateMutability": "nonpayable",
      "type": "function"
    },
    {
      "inputs": [],
      "name": "returnItemOwner",
      "outputs": [
        {
          "internalType": "address",
          "name": "",
          "type": "address"
        }
      ],
      "stateMutability": "view",
      "type": "function"
    },
    {
      "inputs": [],
      "name": "returnPrice",
      "outputs": [
        {
          "internalType": "uint256",
          "name": "",
          "type": "uint256"
        }
      ],
      "stateMutability": "view",
      "type": "function"
    },
    {
      "inputs": [],
      "name": "returnName",
      "outputs": [
        {
          "internalType": "string",
          "name": "",
          "type": "string"
        }
      ],
      "stateMutability": "view",
      "type": "function"
    },
    {
      "inputs": [],
      "name": "returnQuantity",
      "outputs": [
        {
          "internalType": "uint256",
          "name": "",
          "type": "uint256"
        }
      ],
      "stateMutability": "view",
      "type": "function"
    }
  ],
  "bytecode": "0x60806040523480156200001157600080fd5b5060405162001178380380620011788339818101604052810190620000379190620003e8565b86600290805190602001906200004f929190620000fb565b50856001819055508260008190555081600460006101000a81548173ffffffffffffffffffffffffffffffffffffffff021916908373ffffffffffffffffffffffffffffffffffffffff1602179055508060038190555084600660006101000a81548173ffffffffffffffffffffffffffffffffffffffff021916908373ffffffffffffffffffffffffffffffffffffffff16021790555083600581905550505050505050506200051f565b8280546200010990620004e9565b90600052602060002090601f0160209004810192826200012d576000855562000179565b82601f106200014857805160ff191683800117855562000179565b8280016001018555821562000179579182015b82811115620001785782518255916020019190600101906200015b565b5b5090506200018891906200018c565b5090565b5b80821115620001a75760008160009055506001016200018d565b5090565b6000604051905090565b600080fd5b600080fd5b600080fd5b600080fd5b6000601f19601f8301169050919050565b7f4e487b7100000000000000000000000000000000000000000000000000000000600052604160045260246000fd5b6200021482620001c9565b810181811067ffffffffffffffff82111715620002365762000235620001da565b5b80604052505050565b60006200024b620001ab565b905062000259828262000209565b919050565b600067ffffffffffffffff8211156200027c576200027b620001da565b5b6200028782620001c9565b9050602081019050919050565b60005b83811015620002b457808201518184015260208101905062000297565b83811115620002c4576000848401525b50505050565b6000620002e1620002db846200025e565b6200023f565b9050828152602081018484840111156200030057620002ff620001c4565b5b6200030d84828562000294565b509392505050565b600082601f8301126200032d576200032c620001bf565b5b81516200033f848260208601620002ca565b91505092915050565b6000819050919050565b6200035d8162000348565b81146200036957600080fd5b50565b6000815190506200037d8162000352565b92915050565b600073ffffffffffffffffffffffffffffffffffffffff82169050919050565b6000620003b08262000383565b9050919050565b620003c281620003a3565b8114620003ce57600080fd5b50565b600081519050620003e281620003b7565b92915050565b600080600080600080600060e0888a0312156200040a5762000409620001b5565b5b600088015167ffffffffffffffff8111156200042b576200042a620001ba565b5b620004398a828b0162000315565b97505060206200044c8a828b016200036c565b96505060406200045f8a828b01620003d1565b9550506060620004728a828b016200036c565b9450506080620004858a828b016200036c565b93505060a0620004988a828b01620003d1565b92505060c0620004ab8a828b016200036c565b91505092959891949750929550565b7f4e487b7100000000000000000000000000000000000000000000000000000000600052602260045260246000fd5b600060028204905060018216806200050257607f821691505b60208210811415620005195762000518620004ba565b5b50919050565b610c49806200052f6000396000f3fe6080604052600436106100595760003560e01c806310cb4b1a1461006957806341bfe12e146100945780635ea5cabe146100bd5780639a937afb146100e8578063c290d69114610113578063ec52aa721461012f5761005a565b5b34801561006657600080fd5b50005b34801561007557600080fd5b5061007e61015a565b60405161008b9190610656565b60405180910390f35b3480156100a057600080fd5b506100bb60048036038101906100b69190610700565b610164565b005b3480156100c957600080fd5b506100d26103ae565b6040516100df9190610800565b60405180910390f35b3480156100f457600080fd5b506100fd610440565b60405161010a9190610831565b60405180910390f35b61012d6004803603810190610128919061084c565b61046a565b005b34801561013b57600080fd5b50610144610633565b6040516101519190610656565b60405180910390f35b6000600154905090565b600660009054906101000a900473ffffffffffffffffffffffffffffffffffffffff1673ffffffffffffffffffffffffffffffffffffffff163373ffffffffffffffffffffffffffffffffffffffff16146101f4576040517f08c379a00000000000000000000000000000000000000000000000000000000081526004016101eb906108eb565b60405180910390fd5b6000600460009054906101000a900473ffffffffffffffffffffffffffffffffffffffff1673ffffffffffffffffffffffffffffffffffffffff16600086868686604051602401610248949392919061090b565b6040516020818303038152906040527f41bfe12e000000000000000000000000000000000000000000000000000000007bffffffffffffffffffffffffffffffffffffffffffffffffffffffff19166020820180517bffffffffffffffffffffffffffffffffffffffffffffffffffffffff83818316178352505050506040516102d29190610997565b60006040518083038185875af1925050503d806000811461030f576040519150601f19603f3d011682016040523d82523d6000602084013e610314565b606091505b5050905080610358576040517f08c379a000000000000000000000000000000000000000000000000000000000815260040161034f90610a20565b60405180910390fd5b83600660006101000a81548173ffffffffffffffffffffffffffffffffffffffff021916908373ffffffffffffffffffffffffffffffffffffffff16021790555082600181905550816003819055505050505050565b6060600280546103bd90610a6f565b80601f01602080910402602001604051908101604052809291908181526020018280546103e990610a6f565b80156104365780601f1061040b57610100808354040283529160200191610436565b820191906000526020600020905b81548152906001019060200180831161041957829003601f168201915b5050505050905090565b6000600660009054906101000a900473ffffffffffffffffffffffffffffffffffffffff16905090565b60018110156104ae576040517f08c379a00000000000000000000000000000000000000000000000000000000081526004016104a590610aed565b60405180910390fd5b6003548111156104f3576040517f08c379a00000000000000000000000000000000000000000000000000000000081526004016104ea90610b59565b60405180910390fd5b6000600460009054906101000a900473ffffffffffffffffffffffffffffffffffffffff1673ffffffffffffffffffffffffffffffffffffffff1634600054843360405160240161054693929190610b79565b6040516020818303038152906040527f74ff68b6000000000000000000000000000000000000000000000000000000007bffffffffffffffffffffffffffffffffffffffffffffffffffffffff19166020820180517bffffffffffffffffffffffffffffffffffffffffffffffffffffffff83818316178352505050506040516105d09190610997565b60006040518083038185875af1925050503d806000811461060d576040519150601f19603f3d011682016040523d82523d6000602084013e610612565b606091505b5050905081600360008282546106289190610bdf565b925050819055505050565b6000600354905090565b6000819050919050565b6106508161063d565b82525050565b600060208201905061066b6000830184610647565b92915050565b600080fd5b61067f8161063d565b811461068a57600080fd5b50565b60008135905061069c81610676565b92915050565b600073ffffffffffffffffffffffffffffffffffffffff82169050919050565b60006106cd826106a2565b9050919050565b6106dd816106c2565b81146106e857600080fd5b50565b6000813590506106fa816106d4565b92915050565b6000806000806080858703121561071a57610719610671565b5b60006107288782880161068d565b9450506020610739878288016106eb565b935050604061074a8782880161068d565b925050606061075b8782880161068d565b91505092959194509250565b600081519050919050565b600082825260208201905092915050565b60005b838110156107a1578082015181840152602081019050610786565b838111156107b0576000848401525b50505050565b6000601f19601f8301169050919050565b60006107d282610767565b6107dc8185610772565b93506107ec818560208601610783565b6107f5816107b6565b840191505092915050565b6000602082019050818103600083015261081a81846107c7565b905092915050565b61082b816106c2565b82525050565b60006020820190506108466000830184610822565b92915050565b60006020828403121561086257610861610671565b5b60006108708482850161068d565b91505092915050565b7f596f7520646f206e6f7420686176652061636365737320746f2065646974207460008201527f686973206974656d2e0000000000000000000000000000000000000000000000602082015250565b60006108d5602983610772565b91506108e082610879565b604082019050919050565b60006020820190508181036000830152610904816108c8565b9050919050565b60006080820190506109206000830187610647565b61092d6020830186610822565b61093a6040830185610647565b6109476060830184610647565b95945050505050565b600081519050919050565b600081905092915050565b600061097182610950565b61097b818561095b565b935061098b818560208601610783565b80840191505092915050565b60006109a38284610966565b915081905092915050565b7f43616c6c20776173206e6f74207375636365737366756c2e20506c656173652060008201527f74727920616761696e2e00000000000000000000000000000000000000000000602082015250565b6000610a0a602a83610772565b9150610a15826109ae565b604082019050919050565b60006020820190508181036000830152610a39816109fd565b9050919050565b7f4e487b7100000000000000000000000000000000000000000000000000000000600052602260045260246000fd5b60006002820490506001821680610a8757607f821691505b60208210811415610a9b57610a9a610a40565b5b50919050565b7f4e6565642031206f72206d6f726520746f2070757263686173652e0000000000600082015250565b6000610ad7601b83610772565b9150610ae282610aa1565b602082019050919050565b60006020820190508181036000830152610b0681610aca565b9050919050565b7f4e6f7420656e6f75676820696e2073746f636b2e000000000000000000000000600082015250565b6000610b43601483610772565b9150610b4e82610b0d565b602082019050919050565b60006020820190508181036000830152610b7281610b36565b9050919050565b6000606082019050610b8e6000830186610647565b610b9b6020830185610647565b610ba86040830184610822565b949350505050565b7f4e487b7100000000000000000000000000000000000000000000000000000000600052601160045260246000fd5b6000610bea8261063d565b9150610bf58361063d565b925082821015610c0857610c07610bb0565b5b82820390509291505056fea26469706673582212201649db2ead36d628d5b0a6a81822e4d099fbe15c8185ab64d93528dddfc45adf64736f6c634300080a0033",
  "immutableReferences": {},
  "source": "pragma solidity ^0.8.7;\r\nimport './Store.sol';\r\n\r\ncontract Item {\r\n    uint index;\r\n    uint price;\r\n    string name;\r\n    uint quantity;\r\n    address parent;\r\n    uint timeCreated;\r\n    address itemOwner;\r\n\r\n    constructor(string memory _name, uint _price, address _itemOwner, uint _timeCreated, uint _index, address _parent, uint _quantity) {\r\n        name = _name;\r\n        price = _price;\r\n        index = _index;\r\n        parent = _parent;\r\n        quantity = _quantity;\r\n        itemOwner = _itemOwner;\r\n        timeCreated = _timeCreated;\r\n    }\r\n\r\n    function pay(uint _quantity) public payable {\r\n        require(_quantity >= 1, \"Need 1 or more to purchase.\");\r\n        require(_quantity <= quantity, \"Not enough in stock.\");\r\n        (bool parentSuccess, ) = parent.call{ value: msg.value }(abi.encodeWithSignature('triggerPayment(uint256,uint256,address)', index, _quantity, msg.sender));\r\n\r\n        quantity -= _quantity;\r\n    }\r\n\r\n    function editItem(uint _index, address _owner, uint _price, uint _quantity) external {\r\n        require(msg.sender == itemOwner, \"You do not have access to edit this item.\");\r\n        (bool success, ) = parent.call{ value: 0 }(abi.encodeWithSignature('editItem(uint256,address,uint256,uint256)', _index, _owner, _price, _quantity));\r\n\r\n        require(success, \"Call was not successful. Please try again.\");\r\n\r\n        itemOwner = _owner;\r\n        price = _price;\r\n        quantity = _quantity;\r\n    }\r\n\r\n    function returnItemOwner() external view returns(address) {\r\n        return itemOwner;\r\n    }\r\n\r\n    function returnPrice() external view returns(uint) {\r\n        return price;\r\n    }\r\n\r\n    function returnName() external view returns(string memory) {\r\n        return name;\r\n    }\r\n\r\n    function returnQuantity() external view returns(uint) {\r\n        return quantity;\r\n    }\r\n\r\n    fallback() external {}\r\n}",
  "sourcePath": "C:\\Users\\dernl\\Documents\\Projects\\Solidity\\learning\\testProject\\react\\contracts\\Item.sol",
  "compiler": {
    "name": "solc",
    "version": "0.8.10+commit.fc410830.Emscripten.clang"
  },
  "schemaVersion": "3.4.3",
  "updatedAt": "2021-12-08T09:08:06.001Z",
  "devdoc": {
    "kind": "dev",
    "methods": {},
    "version": 1
  },
  "userdoc": {
    "kind": "user",
    "methods": {},
    "version": 1
  }
}