{
  "contractName": "Item",
  "abi": [
    {
      "inputs": [
        {
          "internalType": "string",
          "name": "_name",
          "type": "string"
        },
        {
          "internalType": "uint256",
          "name": "_price",
          "type": "uint256"
        },
        {
          "internalType": "address",
          "name": "_itemOwner",
          "type": "address"
        },
        {
          "internalType": "uint256",
          "name": "_timeCreated",
          "type": "uint256"
        },
        {
          "internalType": "uint256",
          "name": "_index",
          "type": "uint256"
        },
        {
          "internalType": "address",
          "name": "_parent",
          "type": "address"
        }
      ],
      "stateMutability": "nonpayable",
      "type": "constructor"
    },
    {
      "stateMutability": "nonpayable",
      "type": "fallback"
    },
    {
      "inputs": [
        {
          "internalType": "uint256",
          "name": "_quantity",
          "type": "uint256"
        }
      ],
      "name": "pay",
      "outputs": [],
      "stateMutability": "payable",
      "type": "function"
    },
    {
      "inputs": [
        {
          "internalType": "uint256",
          "name": "_index",
          "type": "uint256"
        },
        {
          "internalType": "address",
          "name": "_owner",
          "type": "address"
        },
        {
          "internalType": "uint256",
          "name": "_price",
          "type": "uint256"
        },
        {
          "internalType": "uint256",
          "name": "_quantity",
          "type": "uint256"
        }
      ],
      "name": "editItem",
      "outputs": [],
      "stateMutability": "nonpayable",
      "type": "function"
    },
    {
      "inputs": [],
      "name": "returnItemOwner",
      "outputs": [
        {
          "internalType": "address",
          "name": "",
          "type": "address"
        }
      ],
      "stateMutability": "view",
      "type": "function"
    }
  ],
  "bytecode": "0x60806040523480156200001157600080fd5b5060405162000d2a38038062000d2a8339818101604052810190620000379190620003e0565b85600290805190602001906200004f929190620000f3565b50846001819055508160008190555080600360006101000a81548173ffffffffffffffffffffffffffffffffffffffff021916908373ffffffffffffffffffffffffffffffffffffffff16021790555083600560006101000a81548173ffffffffffffffffffffffffffffffffffffffff021916908373ffffffffffffffffffffffffffffffffffffffff1602179055508260048190555050505050505062000500565b8280546200010190620004ca565b90600052602060002090601f01602090048101928262000125576000855562000171565b82601f106200014057805160ff191683800117855562000171565b8280016001018555821562000171579182015b828111156200017057825182559160200191906001019062000153565b5b50905062000180919062000184565b5090565b5b808211156200019f57600081600090555060010162000185565b5090565b6000604051905090565b600080fd5b600080fd5b600080fd5b600080fd5b6000601f19601f8301169050919050565b7f4e487b7100000000000000000000000000000000000000000000000000000000600052604160045260246000fd5b6200020c82620001c1565b810181811067ffffffffffffffff821117156200022e576200022d620001d2565b5b80604052505050565b600062000243620001a3565b905062000251828262000201565b919050565b600067ffffffffffffffff821115620002745762000273620001d2565b5b6200027f82620001c1565b9050602081019050919050565b60005b83811015620002ac5780820151818401526020810190506200028f565b83811115620002bc576000848401525b50505050565b6000620002d9620002d38462000256565b62000237565b905082815260208101848484011115620002f857620002f7620001bc565b5b620003058482856200028c565b509392505050565b600082601f830112620003255762000324620001b7565b5b815162000337848260208601620002c2565b91505092915050565b6000819050919050565b620003558162000340565b81146200036157600080fd5b50565b60008151905062000375816200034a565b92915050565b600073ffffffffffffffffffffffffffffffffffffffff82169050919050565b6000620003a8826200037b565b9050919050565b620003ba816200039b565b8114620003c657600080fd5b50565b600081519050620003da81620003af565b92915050565b60008060008060008060c087890312156200040057620003ff620001ad565b5b600087015167ffffffffffffffff811115620004215762000420620001b2565b5b6200042f89828a016200030d565b96505060206200044289828a0162000364565b95505060406200045589828a01620003c9565b94505060606200046889828a0162000364565b93505060806200047b89828a0162000364565b92505060a06200048e89828a01620003c9565b9150509295509295509295565b7f4e487b7100000000000000000000000000000000000000000000000000000000600052602260045260246000fd5b60006002820490506001821680620004e357607f821691505b60208210811415620004fa57620004f96200049b565b5b50919050565b61081a80620005106000396000f3fe6080604052600436106100385760003560e01c806341bfe12e146100485780639a937afb14610071578063c290d6911461009c57610039565b5b34801561004557600080fd5b50005b34801561005457600080fd5b5061006f600480360381019061006a91906104e3565b6100b8565b005b34801561007d57600080fd5b506100866102fb565b6040516100939190610559565b60405180910390f35b6100b660048036038101906100b19190610574565b610325565b005b600560009054906101000a900473ffffffffffffffffffffffffffffffffffffffff1673ffffffffffffffffffffffffffffffffffffffff163373ffffffffffffffffffffffffffffffffffffffff1614610148576040517f08c379a000000000000000000000000000000000000000000000000000000000815260040161013f90610624565b60405180910390fd5b6000600360009054906101000a900473ffffffffffffffffffffffffffffffffffffffff1673ffffffffffffffffffffffffffffffffffffffff1660008686868660405160240161019c9493929190610653565b6040516020818303038152906040527f41bfe12e000000000000000000000000000000000000000000000000000000007bffffffffffffffffffffffffffffffffffffffffffffffffffffffff19166020820180517bffffffffffffffffffffffffffffffffffffffffffffffffffffffff83818316178352505050506040516102269190610712565b60006040518083038185875af1925050503d8060008114610263576040519150601f19603f3d011682016040523d82523d6000602084013e610268565b606091505b50509050806102ac576040517f08c379a00000000000000000000000000000000000000000000000000000000081526004016102a39061079b565b60405180910390fd5b83600560006101000a81548173ffffffffffffffffffffffffffffffffffffffff021916908373ffffffffffffffffffffffffffffffffffffffff160217905550826001819055505050505050565b6000600560009054906101000a900473ffffffffffffffffffffffffffffffffffffffff16905090565b6000600360009054906101000a900473ffffffffffffffffffffffffffffffffffffffff1673ffffffffffffffffffffffffffffffffffffffff1660008054846040516024016103769291906107bb565b6040516020818303038152906040527f7bf4d415000000000000000000000000000000000000000000000000000000007bffffffffffffffffffffffffffffffffffffffffffffffffffffffff19166020820180517bffffffffffffffffffffffffffffffffffffffffffffffffffffffff83818316178352505050506040516104009190610712565b60006040518083038185875af1925050503d806000811461043d576040519150601f19603f3d011682016040523d82523d6000602084013e610442565b606091505b505090505050565b600080fd5b6000819050919050565b6104628161044f565b811461046d57600080fd5b50565b60008135905061047f81610459565b92915050565b600073ffffffffffffffffffffffffffffffffffffffff82169050919050565b60006104b082610485565b9050919050565b6104c0816104a5565b81146104cb57600080fd5b50565b6000813590506104dd816104b7565b92915050565b600080600080608085870312156104fd576104fc61044a565b5b600061050b87828801610470565b945050602061051c878288016104ce565b935050604061052d87828801610470565b925050606061053e87828801610470565b91505092959194509250565b610553816104a5565b82525050565b600060208201905061056e600083018461054a565b92915050565b60006020828403121561058a5761058961044a565b5b600061059884828501610470565b91505092915050565b600082825260208201905092915050565b7f596f7520646f206e6f7420686176652061636365737320746f2065646974207460008201527f686973206974656d2e0000000000000000000000000000000000000000000000602082015250565b600061060e6029836105a1565b9150610619826105b2565b604082019050919050565b6000602082019050818103600083015261063d81610601565b9050919050565b61064d8161044f565b82525050565b60006080820190506106686000830187610644565b610675602083018661054a565b6106826040830185610644565b61068f6060830184610644565b95945050505050565b600081519050919050565b600081905092915050565b60005b838110156106cc5780820151818401526020810190506106b1565b838111156106db576000848401525b50505050565b60006106ec82610698565b6106f681856106a3565b93506107068185602086016106ae565b80840191505092915050565b600061071e82846106e1565b915081905092915050565b7f43616c6c20776173206e6f74207375636365737366756c2e20506c656173652060008201527f74727920616761696e2e00000000000000000000000000000000000000000000602082015250565b6000610785602a836105a1565b915061079082610729565b604082019050919050565b600060208201905081810360008301526107b481610778565b9050919050565b60006040820190506107d06000830185610644565b6107dd6020830184610644565b939250505056fea26469706673582212202d7047e2b8e1df7cc3a0a1491710d857df26d13943bac98789f915a5914f7ac064736f6c634300080a0033",
  "immutableReferences": {},
  "source": "pragma solidity ^0.8.7;\r\nimport './Store.sol';\r\n\r\ncontract Item {\r\n    uint index;\r\n    uint price;\r\n    string name;\r\n    address parent;\r\n    uint timeCreated;\r\n    address itemOwner;\r\n\r\n    constructor(string memory _name, uint _price, address _itemOwner, uint _timeCreated, uint _index, address _parent) {\r\n        name = _name;\r\n        price = _price;\r\n        index = _index;\r\n        parent = _parent;\r\n        itemOwner = _itemOwner;\r\n        timeCreated = _timeCreated;\r\n    }\r\n\r\n    function pay(uint _quantity) public payable {\r\n        (bool parentSuccess, ) = parent.call{ value: 0 }(abi.encodeWithSignature('triggerPayment(uint256,uint256)', index, _quantity));\r\n    }\r\n\r\n    function editItem(uint _index, address _owner, uint _price, uint _quantity) external {\r\n        require(msg.sender == itemOwner, \"You do not have access to edit this item.\");\r\n        (bool success, ) = parent.call{ value: 0 }(abi.encodeWithSignature('editItem(uint256,address,uint256,uint256)', _index, _owner, _price, _quantity));\r\n\r\n        require(success, \"Call was not successful. Please try again.\");\r\n\r\n        itemOwner = _owner;\r\n        price = _price;\r\n    }\r\n\r\n    function returnItemOwner() external view returns(address) {\r\n        return itemOwner;\r\n    }\r\n\r\n    fallback() external {}\r\n}",
  "sourcePath": "C:\\Users\\dernl\\Documents\\Projects\\Solidity\\learning\\testProject\\react\\contracts\\Item.sol",
  "compiler": {
    "name": "solc",
    "version": "0.8.10+commit.fc410830.Emscripten.clang"
  },
  "schemaVersion": "3.4.3",
  "updatedAt": "2021-11-13T23:41:35.594Z",
  "devdoc": {
    "kind": "dev",
    "methods": {},
    "version": 1
  },
  "userdoc": {
    "kind": "user",
    "methods": {},
    "version": 1
  }
}