{
  "contractName": "Store",
  "abi": [
    {
      "anonymous": false,
      "inputs": [
        {
          "indexed": false,
          "internalType": "uint256",
          "name": "_itemIndex",
          "type": "uint256"
        },
        {
          "indexed": false,
          "internalType": "address",
          "name": "_itemAddress",
          "type": "address"
        }
      ],
      "name": "ItemEvent",
      "type": "event"
    },
    {
      "anonymous": false,
      "inputs": [
        {
          "indexed": false,
          "internalType": "uint256",
          "name": "_status",
          "type": "uint256"
        }
      ],
      "name": "PaymentEvent",
      "type": "event"
    },
    {
      "inputs": [
        {
          "internalType": "uint256",
          "name": "",
          "type": "uint256"
        }
      ],
      "name": "items",
      "outputs": [
        {
          "internalType": "string",
          "name": "_identifier",
          "type": "string"
        },
        {
          "internalType": "address",
          "name": "_itemOwner",
          "type": "address"
        },
        {
          "internalType": "uint256",
          "name": "_price",
          "type": "uint256"
        },
        {
          "internalType": "uint256",
          "name": "_quantity",
          "type": "uint256"
        },
        {
          "internalType": "uint256",
          "name": "_timeCreated",
          "type": "uint256"
        },
        {
          "internalType": "uint256",
          "name": "_purchases",
          "type": "uint256"
        },
        {
          "internalType": "contract Item",
          "name": "_item",
          "type": "address"
        }
      ],
      "stateMutability": "view",
      "type": "function",
      "constant": true
    },
    {
      "inputs": [
        {
          "internalType": "string",
          "name": "_name",
          "type": "string"
        },
        {
          "internalType": "uint256",
          "name": "_price",
          "type": "uint256"
        },
        {
          "internalType": "uint256",
          "name": "_quantity",
          "type": "uint256"
        }
      ],
      "name": "createItem",
      "outputs": [],
      "stateMutability": "nonpayable",
      "type": "function"
    },
    {
      "inputs": [
        {
          "internalType": "uint256",
          "name": "_itemIndex",
          "type": "uint256"
        },
        {
          "internalType": "uint256",
          "name": "_quantity",
          "type": "uint256"
        }
      ],
      "name": "triggerPayment",
      "outputs": [],
      "stateMutability": "payable",
      "type": "function",
      "payable": true
    },
    {
      "inputs": [
        {
          "internalType": "uint256",
          "name": "_index",
          "type": "uint256"
        },
        {
          "internalType": "address",
          "name": "_itemOwner",
          "type": "address"
        },
        {
          "internalType": "uint256",
          "name": "_price",
          "type": "uint256"
        },
        {
          "internalType": "uint256",
          "name": "_quantity",
          "type": "uint256"
        }
      ],
      "name": "editItem",
      "outputs": [],
      "stateMutability": "nonpayable",
      "type": "function"
    },
    {
      "inputs": [],
      "name": "returnOwner",
      "outputs": [
        {
          "internalType": "address",
          "name": "",
          "type": "address"
        }
      ],
      "stateMutability": "view",
      "type": "function",
      "constant": true
    }
  ],
  "bytecode": "0x608060405234801561001057600080fd5b50336000806101000a81548173ffffffffffffffffffffffffffffffffffffffff021916908373ffffffffffffffffffffffffffffffffffffffff160217905550612976806100606000396000f3fe608060405260043610620000505760003560e01c8063108155bc146200005557806341bfe12e14620000835780637bf4d41514620000b157806394a927fe14620000d1578063bfb231d21462000101575b600080fd5b3480156200006257600080fd5b506200008160048036038101906200007b919062000e1d565b6200014b565b005b3480156200009057600080fd5b50620000af6004803603810190620000a9919062000efd565b62000327565b005b620000cf6004803603810190620000c9919062000f6f565b6200045f565b005b348015620000de57600080fd5b50620000e962000a73565b604051620000f8919062000fc7565b60405180910390f35b3480156200010e57600080fd5b506200012d600480360381019062000127919062000fe4565b62000a9c565b60405162000142979695949392919062001125565b60405180910390f35b6000838333426001543087604051620001649062000bae565b620001769796959493929190620011a9565b604051809103906000f08015801562000193573d6000803e3d6000fd5b509050836002600060015481526020019081526020016000206000019080519060200190620001c492919062000bbc565b503360026000600154815260200190815260200160002060010160006101000a81548173ffffffffffffffffffffffffffffffffffffffff021916908373ffffffffffffffffffffffffffffffffffffffff1602179055508260026000600154815260200190815260200160002060020181905550816002600060015481526020019081526020016000206003018190555042600260006001548152602001908152602001600020600401819055508060026000600154815260200190815260200160002060060160006101000a81548173ffffffffffffffffffffffffffffffffffffffff021916908373ffffffffffffffffffffffffffffffffffffffff1602179055507fca5585368d85299533de15b811903fb3e0bab33615d34e80673fa2aaca328f6a60015482604051620002ff9291906200122d565b60405180910390a1600160008154809291906200031c9062001289565b919050555050505050565b6002600085815260200190815260200160002060060160009054906101000a900473ffffffffffffffffffffffffffffffffffffffff1673ffffffffffffffffffffffffffffffffffffffff163373ffffffffffffffffffffffffffffffffffffffff1614620003ce576040517f08c379a0000000000000000000000000000000000000000000000000000000008152600401620003c5906200134d565b60405180910390fd5b826002600086815260200190815260200160002060010160006101000a81548173ffffffffffffffffffffffffffffffffffffffff021916908373ffffffffffffffffffffffffffffffffffffffff16021790555081600260008681526020019081526020016000206002018190555080600260008681526020019081526020016000206003018190555050505050565b6002600083815260200190815260200160002060060160009054906101000a900473ffffffffffffffffffffffffffffffffffffffff1673ffffffffffffffffffffffffffffffffffffffff163373ffffffffffffffffffffffffffffffffffffffff161462000506576040517f08c379a0000000000000000000000000000000000000000000000000000000008152600401620004fd90620013e5565b60405180910390fd5b60018110156200054d576040517f08c379a0000000000000000000000000000000000000000000000000000000008152600401620005449062001457565b60405180910390fd5b6002600083815260200190815260200160002060030154811115620005a9576040517f08c379a0000000000000000000000000000000000000000000000000000000008152600401620005a090620014c9565b60405180910390fd5b806002600084815260200190815260200160002060020154620005cd9190620014eb565b341462000611576040517f08c379a000000000000000000000000000000000000000000000000000000000815260040162000608906200159c565b60405180910390fd5b600060026000848152602001908152602001600020600501549050600060646005346200063f9190620014eb565b6200064b9190620015ed565b9050600081346200065d919062001625565b905060006002600087815260200190815260200160002060010160009054906101000a900473ffffffffffffffffffffffffffffffffffffffff16905060008173ffffffffffffffffffffffffffffffffffffffff1683604051620006c29062001695565b60006040518083038185875af1925050503d806000811462000701576040519150601f19603f3d011682016040523d82523d6000602084013e62000706565b606091505b50509050806200074d576040517f08c379a0000000000000000000000000000000000000000000000000000000008152600401620007449062001722565b60405180910390fd5b60008060009054906101000a900473ffffffffffffffffffffffffffffffffffffffff1673ffffffffffffffffffffffffffffffffffffffff1685604051620007969062001695565b60006040518083038185875af1925050503d8060008114620007d5576040519150601f19603f3d011682016040523d82523d6000602084013e620007da565b606091505b505090508062000821576040517f08c379a0000000000000000000000000000000000000000000000000000000008152600401620008189062001722565b60405180910390fd5b6002600089815260200190815260200160002060060160009054906101000a900473ffffffffffffffffffffffffffffffffffffffff16600260008a8152602001908152602001600020600701600088815260200190815260200160002060000160006101000a81548173ffffffffffffffffffffffffffffffffffffffff021916908373ffffffffffffffffffffffffffffffffffffffff16021790555033600260008a8152602001908152602001600020600701600088815260200190815260200160002060010160006101000a81548173ffffffffffffffffffffffffffffffffffffffff021916908373ffffffffffffffffffffffffffffffffffffffff16021790555034600260008a815260200190815260200160002060070160008881526020019081526020016000206002018190555086600260008a815260200190815260200160002060070160008881526020019081526020016000206003018190555042600260008a81526020019081526020016000206007016000888152602001908152602001600020600401819055506000600260008a8152602001908152602001600020600701600088815260200190815260200160002060050160006101000a81548160ff0219169083600281111562000a075762000a0662001744565b5b021790555060026000898152602001908152602001600020600501600081548092919062000a359062001289565b919050555086600260008a8152602001908152602001600020600301600082825462000a62919062001625565b925050819055505050505050505050565b60008060009054906101000a900473ffffffffffffffffffffffffffffffffffffffff16905090565b600260205280600052604060002060009150905080600001805462000ac190620017a2565b80601f016020809104026020016040519081016040528092919081815260200182805462000aef90620017a2565b801562000b405780601f1062000b145761010080835404028352916020019162000b40565b820191906000526020600020905b81548152906001019060200180831162000b2257829003601f168201915b5050505050908060010160009054906101000a900473ffffffffffffffffffffffffffffffffffffffff16908060020154908060030154908060040154908060050154908060060160009054906101000a900473ffffffffffffffffffffffffffffffffffffffff16905087565b61116880620017d983390190565b82805462000bca90620017a2565b90600052602060002090601f01602090048101928262000bee576000855562000c3a565b82601f1062000c0957805160ff191683800117855562000c3a565b8280016001018555821562000c3a579182015b8281111562000c3957825182559160200191906001019062000c1c565b5b50905062000c49919062000c4d565b5090565b5b8082111562000c6857600081600090555060010162000c4e565b5090565b6000604051905090565b600080fd5b600080fd5b600080fd5b600080fd5b6000601f19601f8301169050919050565b7f4e487b7100000000000000000000000000000000000000000000000000000000600052604160045260246000fd5b62000cd58262000c8a565b810181811067ffffffffffffffff8211171562000cf75762000cf662000c9b565b5b80604052505050565b600062000d0c62000c6c565b905062000d1a828262000cca565b919050565b600067ffffffffffffffff82111562000d3d5762000d3c62000c9b565b5b62000d488262000c8a565b9050602081019050919050565b82818337600083830152505050565b600062000d7b62000d758462000d1f565b62000d00565b90508281526020810184848401111562000d9a5762000d9962000c85565b5b62000da784828562000d55565b509392505050565b600082601f83011262000dc75762000dc662000c80565b5b813562000dd984826020860162000d64565b91505092915050565b6000819050919050565b62000df78162000de2565b811462000e0357600080fd5b50565b60008135905062000e178162000dec565b92915050565b60008060006060848603121562000e395762000e3862000c76565b5b600084013567ffffffffffffffff81111562000e5a5762000e5962000c7b565b5b62000e688682870162000daf565b935050602062000e7b8682870162000e06565b925050604062000e8e8682870162000e06565b9150509250925092565b600073ffffffffffffffffffffffffffffffffffffffff82169050919050565b600062000ec58262000e98565b9050919050565b62000ed78162000eb8565b811462000ee357600080fd5b50565b60008135905062000ef78162000ecc565b92915050565b6000806000806080858703121562000f1a5762000f1962000c76565b5b600062000f2a8782880162000e06565b945050602062000f3d8782880162000ee6565b935050604062000f508782880162000e06565b925050606062000f638782880162000e06565b91505092959194509250565b6000806040838503121562000f895762000f8862000c76565b5b600062000f998582860162000e06565b925050602062000fac8582860162000e06565b9150509250929050565b62000fc18162000eb8565b82525050565b600060208201905062000fde600083018462000fb6565b92915050565b60006020828403121562000ffd5762000ffc62000c76565b5b60006200100d8482850162000e06565b91505092915050565b600081519050919050565b600082825260208201905092915050565b60005b838110156200105257808201518184015260208101905062001035565b8381111562001062576000848401525b50505050565b6000620010758262001016565b62001081818562001021565b93506200109381856020860162001032565b6200109e8162000c8a565b840191505092915050565b620010b48162000de2565b82525050565b6000819050919050565b6000620010e5620010df620010d98462000e98565b620010ba565b62000e98565b9050919050565b6000620010f982620010c4565b9050919050565b60006200110d82620010ec565b9050919050565b6200111f8162001100565b82525050565b600060e082019050818103600083015262001141818a62001068565b905062001152602083018962000fb6565b620011616040830188620010a9565b620011706060830187620010a9565b6200117f6080830186620010a9565b6200118e60a0830185620010a9565b6200119d60c083018462001114565b98975050505050505050565b600060e0820190508181036000830152620011c5818a62001068565b9050620011d66020830189620010a9565b620011e5604083018862000fb6565b620011f46060830187620010a9565b620012036080830186620010a9565b6200121260a083018562000fb6565b6200122160c0830184620010a9565b98975050505050505050565b6000604082019050620012446000830185620010a9565b62001253602083018462000fb6565b9392505050565b7f4e487b7100000000000000000000000000000000000000000000000000000000600052601160045260246000fd5b6000620012968262000de2565b91507fffffffffffffffffffffffffffffffffffffffffffffffffffffffffffffffff821415620012cc57620012cb6200125a565b5b600182019050919050565b7f46756e6369746f6e206e6f742063616c6c65642066726f6d204974656d20436f60008201527f6e74726163742e00000000000000000000000000000000000000000000000000602082015250565b60006200133560278362001021565b91506200134282620012d7565b604082019050919050565b60006020820190508181036000830152620013688162001326565b9050919050565b7f46756e6374696f6e206e6f742063616c6c65642066726f6d204974656d20436f60008201527f6e74726163742e00000000000000000000000000000000000000000000000000602082015250565b6000620013cd60278362001021565b9150620013da826200136f565b604082019050919050565b600060208201905081810360008301526200140081620013be565b9050919050565b7f4e6565642031206f72206d6f726520746f2070757263686173652e0000000000600082015250565b60006200143f601b8362001021565b91506200144c8262001407565b602082019050919050565b60006020820190508181036000830152620014728162001430565b9050919050565b7f4e6f7420656e6f75676820696e2073746f636b2e000000000000000000000000600082015250565b6000620014b160148362001021565b9150620014be8262001479565b602082019050919050565b60006020820190508181036000830152620014e481620014a2565b9050919050565b6000620014f88262000de2565b9150620015058362000de2565b9250817fffffffffffffffffffffffffffffffffffffffffffffffffffffffffffffffff04831182151516156200154157620015406200125a565b5b828202905092915050565b7f4d75737420706179207370656369666965642070726963652e00000000000000600082015250565b60006200158460198362001021565b915062001591826200154c565b602082019050919050565b60006020820190508181036000830152620015b78162001575565b9050919050565b7f4e487b7100000000000000000000000000000000000000000000000000000000600052601260045260246000fd5b6000620015fa8262000de2565b9150620016078362000de2565b9250826200161a5762001619620015be565b5b828204905092915050565b6000620016328262000de2565b91506200163f8362000de2565b9250828210156200165557620016546200125a565b5b828203905092915050565b600081905092915050565b50565b60006200167d60008362001660565b91506200168a826200166b565b600082019050919050565b6000620016a2826200166e565b9150819050919050565b7f5061796d656e7420646964206e6f742073656e64207375636365737366756c6c60008201527f792e20506c656173652074727920616761696e2e000000000000000000000000602082015250565b60006200170a60348362001021565b91506200171782620016ac565b604082019050919050565b600060208201905081810360008301526200173d81620016fb565b9050919050565b7f4e487b7100000000000000000000000000000000000000000000000000000000600052602160045260246000fd5b7f4e487b7100000000000000000000000000000000000000000000000000000000600052602260045260246000fd5b60006002820490506001821680620017bb57607f821691505b60208210811415620017d257620017d162001773565b5b5091905056fe60806040523480156200001157600080fd5b5060405162001168380380620011688339818101604052810190620000379190620003e8565b86600290805190602001906200004f929190620000fb565b50856001819055508260008190555081600460006101000a81548173ffffffffffffffffffffffffffffffffffffffff021916908373ffffffffffffffffffffffffffffffffffffffff1602179055508060038190555084600660006101000a81548173ffffffffffffffffffffffffffffffffffffffff021916908373ffffffffffffffffffffffffffffffffffffffff16021790555083600581905550505050505050506200051f565b8280546200010990620004e9565b90600052602060002090601f0160209004810192826200012d576000855562000179565b82601f106200014857805160ff191683800117855562000179565b8280016001018555821562000179579182015b82811115620001785782518255916020019190600101906200015b565b5b5090506200018891906200018c565b5090565b5b80821115620001a75760008160009055506001016200018d565b5090565b6000604051905090565b600080fd5b600080fd5b600080fd5b600080fd5b6000601f19601f8301169050919050565b7f4e487b7100000000000000000000000000000000000000000000000000000000600052604160045260246000fd5b6200021482620001c9565b810181811067ffffffffffffffff82111715620002365762000235620001da565b5b80604052505050565b60006200024b620001ab565b905062000259828262000209565b919050565b600067ffffffffffffffff8211156200027c576200027b620001da565b5b6200028782620001c9565b9050602081019050919050565b60005b83811015620002b457808201518184015260208101905062000297565b83811115620002c4576000848401525b50505050565b6000620002e1620002db846200025e565b6200023f565b9050828152602081018484840111156200030057620002ff620001c4565b5b6200030d84828562000294565b509392505050565b600082601f8301126200032d576200032c620001bf565b5b81516200033f848260208601620002ca565b91505092915050565b6000819050919050565b6200035d8162000348565b81146200036957600080fd5b50565b6000815190506200037d8162000352565b92915050565b600073ffffffffffffffffffffffffffffffffffffffff82169050919050565b6000620003b08262000383565b9050919050565b620003c281620003a3565b8114620003ce57600080fd5b50565b600081519050620003e281620003b7565b92915050565b600080600080600080600060e0888a0312156200040a5762000409620001b5565b5b600088015167ffffffffffffffff8111156200042b576200042a620001ba565b5b620004398a828b0162000315565b97505060206200044c8a828b016200036c565b96505060406200045f8a828b01620003d1565b9550506060620004728a828b016200036c565b9450506080620004858a828b016200036c565b93505060a0620004988a828b01620003d1565b92505060c0620004ab8a828b016200036c565b91505092959891949750929550565b7f4e487b7100000000000000000000000000000000000000000000000000000000600052602260045260246000fd5b600060028204905060018216806200050257607f821691505b60208210811415620005195762000518620004ba565b5b50919050565b610c39806200052f6000396000f3fe6080604052600436106100595760003560e01c806310cb4b1a1461006957806341bfe12e146100945780635ea5cabe146100bd5780639a937afb146100e8578063c290d69114610113578063ec52aa721461012f5761005a565b5b34801561006657600080fd5b50005b34801561007557600080fd5b5061007e61015a565b60405161008b9190610654565b60405180910390f35b3480156100a057600080fd5b506100bb60048036038101906100b691906106fe565b610164565b005b3480156100c957600080fd5b506100d26103ae565b6040516100df91906107fe565b60405180910390f35b3480156100f457600080fd5b506100fd610440565b60405161010a919061082f565b60405180910390f35b61012d6004803603810190610128919061084a565b61046a565b005b34801561013b57600080fd5b50610144610631565b6040516101519190610654565b60405180910390f35b6000600154905090565b600660009054906101000a900473ffffffffffffffffffffffffffffffffffffffff1673ffffffffffffffffffffffffffffffffffffffff163373ffffffffffffffffffffffffffffffffffffffff16146101f4576040517f08c379a00000000000000000000000000000000000000000000000000000000081526004016101eb906108e9565b60405180910390fd5b6000600460009054906101000a900473ffffffffffffffffffffffffffffffffffffffff1673ffffffffffffffffffffffffffffffffffffffff166000868686866040516024016102489493929190610909565b6040516020818303038152906040527f41bfe12e000000000000000000000000000000000000000000000000000000007bffffffffffffffffffffffffffffffffffffffffffffffffffffffff19166020820180517bffffffffffffffffffffffffffffffffffffffffffffffffffffffff83818316178352505050506040516102d29190610995565b60006040518083038185875af1925050503d806000811461030f576040519150601f19603f3d011682016040523d82523d6000602084013e610314565b606091505b5050905080610358576040517f08c379a000000000000000000000000000000000000000000000000000000000815260040161034f90610a1e565b60405180910390fd5b83600660006101000a81548173ffffffffffffffffffffffffffffffffffffffff021916908373ffffffffffffffffffffffffffffffffffffffff16021790555082600181905550816003819055505050505050565b6060600280546103bd90610a6d565b80601f01602080910402602001604051908101604052809291908181526020018280546103e990610a6d565b80156104365780601f1061040b57610100808354040283529160200191610436565b820191906000526020600020905b81548152906001019060200180831161041957829003601f168201915b5050505050905090565b6000600660009054906101000a900473ffffffffffffffffffffffffffffffffffffffff16905090565b60018110156104ae576040517f08c379a00000000000000000000000000000000000000000000000000000000081526004016104a590610aeb565b60405180910390fd5b6003548111156104f3576040517f08c379a00000000000000000000000000000000000000000000000000000000081526004016104ea90610b57565b60405180910390fd5b6000600460009054906101000a900473ffffffffffffffffffffffffffffffffffffffff1673ffffffffffffffffffffffffffffffffffffffff163460005484604051602401610544929190610b77565b6040516020818303038152906040527f7bf4d415000000000000000000000000000000000000000000000000000000007bffffffffffffffffffffffffffffffffffffffffffffffffffffffff19166020820180517bffffffffffffffffffffffffffffffffffffffffffffffffffffffff83818316178352505050506040516105ce9190610995565b60006040518083038185875af1925050503d806000811461060b576040519150601f19603f3d011682016040523d82523d6000602084013e610610565b606091505b5050905081600360008282546106269190610bcf565b925050819055505050565b6000600354905090565b6000819050919050565b61064e8161063b565b82525050565b60006020820190506106696000830184610645565b92915050565b600080fd5b61067d8161063b565b811461068857600080fd5b50565b60008135905061069a81610674565b92915050565b600073ffffffffffffffffffffffffffffffffffffffff82169050919050565b60006106cb826106a0565b9050919050565b6106db816106c0565b81146106e657600080fd5b50565b6000813590506106f8816106d2565b92915050565b600080600080608085870312156107185761071761066f565b5b60006107268782880161068b565b9450506020610737878288016106e9565b93505060406107488782880161068b565b92505060606107598782880161068b565b91505092959194509250565b600081519050919050565b600082825260208201905092915050565b60005b8381101561079f578082015181840152602081019050610784565b838111156107ae576000848401525b50505050565b6000601f19601f8301169050919050565b60006107d082610765565b6107da8185610770565b93506107ea818560208601610781565b6107f3816107b4565b840191505092915050565b6000602082019050818103600083015261081881846107c5565b905092915050565b610829816106c0565b82525050565b60006020820190506108446000830184610820565b92915050565b6000602082840312156108605761085f61066f565b5b600061086e8482850161068b565b91505092915050565b7f596f7520646f206e6f7420686176652061636365737320746f2065646974207460008201527f686973206974656d2e0000000000000000000000000000000000000000000000602082015250565b60006108d3602983610770565b91506108de82610877565b604082019050919050565b60006020820190508181036000830152610902816108c6565b9050919050565b600060808201905061091e6000830187610645565b61092b6020830186610820565b6109386040830185610645565b6109456060830184610645565b95945050505050565b600081519050919050565b600081905092915050565b600061096f8261094e565b6109798185610959565b9350610989818560208601610781565b80840191505092915050565b60006109a18284610964565b915081905092915050565b7f43616c6c20776173206e6f74207375636365737366756c2e20506c656173652060008201527f74727920616761696e2e00000000000000000000000000000000000000000000602082015250565b6000610a08602a83610770565b9150610a13826109ac565b604082019050919050565b60006020820190508181036000830152610a37816109fb565b9050919050565b7f4e487b7100000000000000000000000000000000000000000000000000000000600052602260045260246000fd5b60006002820490506001821680610a8557607f821691505b60208210811415610a9957610a98610a3e565b5b50919050565b7f4e6565642031206f72206d6f726520746f2070757263686173652e0000000000600082015250565b6000610ad5601b83610770565b9150610ae082610a9f565b602082019050919050565b60006020820190508181036000830152610b0481610ac8565b9050919050565b7f4e6f7420656e6f75676820696e2073746f636b2e000000000000000000000000600082015250565b6000610b41601483610770565b9150610b4c82610b0b565b602082019050919050565b60006020820190508181036000830152610b7081610b34565b9050919050565b6000604082019050610b8c6000830185610645565b610b996020830184610645565b9392505050565b7f4e487b7100000000000000000000000000000000000000000000000000000000600052601160045260246000fd5b6000610bda8261063b565b9150610be58361063b565b925082821015610bf857610bf7610ba0565b5b82820390509291505056fea26469706673582212204cf72dc5dc1c2b3673677f7bf13547908a82461bfe7556544843b50c0bede55c64736f6c634300080a0033a2646970667358221220331a6a88ee4bc779b8818e33b9f4a2b01b46627bacffa569482dd4e9e931967264736f6c634300080a0033",
  "immutableReferences": {},
  "source": "pragma solidity ^0.8.7;\r\nimport './Ownable.sol';\r\nimport './Item.sol';\r\n\r\ncontract Store is Ownable {\r\n    uint index;\r\n    enum SupplyStatus{ Purchased, InTransit, Delivered }\r\n\r\n    event ItemEvent(uint _itemIndex, address _itemAddress);\r\n    event PaymentEvent(uint _status);\r\n\r\n    struct S_Payment {\r\n        address _item;\r\n        address _buyer;\r\n        uint _value;\r\n        uint _quantity;\r\n        uint _timePurchased;\r\n        Store.SupplyStatus _status;\r\n    }\r\n\r\n    struct S_Item {\r\n        string _identifier;\r\n        address _itemOwner;\r\n        uint _price;\r\n        uint _quantity;\r\n        uint _timeCreated;\r\n        uint _purchases;\r\n        Item _item;\r\n        mapping(uint => S_Payment) _payments;\r\n    }\r\n\r\n    mapping(uint => S_Item) public items;\r\n\r\n    function createItem(string memory _name, uint _price, uint _quantity) public {\r\n        Item item = new Item(_name, _price, msg.sender, block.timestamp, index, address(this), _quantity);\r\n\r\n        items[index]._identifier = _name;\r\n        items[index]._itemOwner = msg.sender;\r\n        items[index]._price = _price;\r\n        items[index]._quantity = _quantity;\r\n        items[index]._timeCreated = block.timestamp;\r\n        items[index]._item = item;\r\n\r\n        emit ItemEvent(index, address(item));\r\n        index++;\r\n    }\r\n\r\n    function triggerPayment(uint _itemIndex, uint _quantity) public payable {\r\n        require(msg.sender == address(items[_itemIndex]._item), \"Function not called from Item Contract.\");\r\n        require(_quantity >= 1, \"Need 1 or more to purchase.\");\r\n        require(_quantity <= items[_itemIndex]._quantity, \"Not enough in stock.\");\r\n        require(msg.value == items[_itemIndex]._price * _quantity, \"Must pay specified price.\"); \r\n\r\n        uint purchaseIndex = items[_itemIndex]._purchases;\r\n        uint comission = msg.value * 5 / 100;\r\n        uint itemOwnerPay = msg.value - comission;\r\n        address itemOwner = items[_itemIndex]._itemOwner;\r\n\r\n        (bool itemOwnerSuccess, ) = itemOwner.call{ value: itemOwnerPay }('');\r\n        require(itemOwnerSuccess, \"Payment did not send successfully. Please try again.\");\r\n        (bool ownerSuccess, ) = owner.call{ value: comission }('');\r\n        require(ownerSuccess, \"Payment did not send successfully. Please try again.\");\r\n\r\n        items[_itemIndex]._payments[purchaseIndex]._item = address(items[_itemIndex]._item);\r\n        items[_itemIndex]._payments[purchaseIndex]._buyer = msg.sender;\r\n        items[_itemIndex]._payments[purchaseIndex]._value = msg.value;\r\n        items[_itemIndex]._payments[purchaseIndex]._quantity = _quantity;\r\n        items[_itemIndex]._payments[purchaseIndex]._timePurchased = block.timestamp;\r\n        items[_itemIndex]._payments[purchaseIndex]._status = SupplyStatus.Purchased;\r\n\r\n        items[_itemIndex]._purchases++;\r\n        items[_itemIndex]._quantity -= _quantity;\r\n    }\r\n\r\n    function editItem(uint _index, address _itemOwner, uint _price, uint _quantity) public {\r\n        require(msg.sender == address(items[_index]._item), \"Funciton not called from Item Contract.\");\r\n        items[_index]._itemOwner = _itemOwner;\r\n        items[_index]._price = _price;\r\n        items[_index]._quantity = _quantity;\r\n    }\r\n\r\n    function returnOwner() public view returns(address) {\r\n        return owner;\r\n    }\r\n}",
  "sourcePath": "C:\\Users\\dernl\\Documents\\Projects\\Solidity\\learning\\testProject\\react\\contracts\\Store.sol",
  "compiler": {
    "name": "solc",
    "version": "0.8.10+commit.fc410830.Emscripten.clang"
  },
  "schemaVersion": "3.4.3",
  "updatedAt": "2021-11-17T15:39:06.978Z",
  "networkType": "ethereum",
  "devdoc": {
    "kind": "dev",
    "methods": {},
    "version": 1
  },
  "userdoc": {
    "kind": "user",
    "methods": {},
    "version": 1
  }
}