{
  "contractName": "Store",
  "abi": [
    {
      "anonymous": false,
      "inputs": [
        {
          "indexed": false,
          "internalType": "uint256",
          "name": "_itemIndex",
          "type": "uint256"
        },
        {
          "indexed": false,
          "internalType": "address",
          "name": "_itemAddress",
          "type": "address"
        }
      ],
      "name": "ItemEvent",
      "type": "event"
    },
    {
      "anonymous": false,
      "inputs": [
        {
          "indexed": false,
          "internalType": "uint256",
          "name": "_itemIndex",
          "type": "uint256"
        },
        {
          "indexed": false,
          "internalType": "address",
          "name": "_buyerAddr",
          "type": "address"
        },
        {
          "indexed": false,
          "internalType": "uint256",
          "name": "_status",
          "type": "uint256"
        }
      ],
      "name": "PaymentEvent",
      "type": "event"
    },
    {
      "inputs": [
        {
          "internalType": "address",
          "name": "",
          "type": "address"
        }
      ],
      "name": "itemIndex",
      "outputs": [
        {
          "internalType": "uint256",
          "name": "",
          "type": "uint256"
        }
      ],
      "stateMutability": "view",
      "type": "function",
      "constant": true
    },
    {
      "inputs": [
        {
          "internalType": "uint256",
          "name": "",
          "type": "uint256"
        }
      ],
      "name": "items",
      "outputs": [
        {
          "internalType": "string",
          "name": "_identifier",
          "type": "string"
        },
        {
          "internalType": "address",
          "name": "_itemOwner",
          "type": "address"
        },
        {
          "internalType": "uint256",
          "name": "_price",
          "type": "uint256"
        },
        {
          "internalType": "uint256",
          "name": "_quantity",
          "type": "uint256"
        },
        {
          "internalType": "uint256",
          "name": "_timeCreated",
          "type": "uint256"
        },
        {
          "internalType": "uint256",
          "name": "_purchases",
          "type": "uint256"
        },
        {
          "internalType": "contract Item",
          "name": "_item",
          "type": "address"
        }
      ],
      "stateMutability": "view",
      "type": "function",
      "constant": true
    },
    {
      "inputs": [
        {
          "internalType": "address",
          "name": "",
          "type": "address"
        }
      ],
      "name": "profiles",
      "outputs": [
        {
          "internalType": "uint256",
          "name": "_itemsOwned",
          "type": "uint256"
        }
      ],
      "stateMutability": "view",
      "type": "function",
      "constant": true
    },
    {
      "inputs": [
        {
          "internalType": "string",
          "name": "_name",
          "type": "string"
        },
        {
          "internalType": "uint256",
          "name": "_price",
          "type": "uint256"
        },
        {
          "internalType": "uint256",
          "name": "_quantity",
          "type": "uint256"
        }
      ],
      "name": "createItem",
      "outputs": [],
      "stateMutability": "nonpayable",
      "type": "function"
    },
    {
      "inputs": [
        {
          "internalType": "uint256",
          "name": "_itemIndex",
          "type": "uint256"
        },
        {
          "internalType": "uint256",
          "name": "_quantity",
          "type": "uint256"
        },
        {
          "internalType": "address",
          "name": "_buyer",
          "type": "address"
        }
      ],
      "name": "triggerPayment",
      "outputs": [],
      "stateMutability": "payable",
      "type": "function",
      "payable": true
    },
    {
      "inputs": [
        {
          "internalType": "uint256",
          "name": "_index",
          "type": "uint256"
        },
        {
          "internalType": "address",
          "name": "_itemOwner",
          "type": "address"
        },
        {
          "internalType": "uint256",
          "name": "_price",
          "type": "uint256"
        },
        {
          "internalType": "uint256",
          "name": "_quantity",
          "type": "uint256"
        }
      ],
      "name": "editItem",
      "outputs": [],
      "stateMutability": "nonpayable",
      "type": "function"
    },
    {
      "inputs": [],
      "name": "returnOwner",
      "outputs": [
        {
          "internalType": "address",
          "name": "",
          "type": "address"
        }
      ],
      "stateMutability": "view",
      "type": "function",
      "constant": true
    },
    {
      "inputs": [
        {
          "internalType": "address",
          "name": "_itemOwner",
          "type": "address"
        },
        {
          "internalType": "uint256",
          "name": "_index",
          "type": "uint256"
        }
      ],
      "name": "returnItemsOwnedByAddress",
      "outputs": [
        {
          "internalType": "address",
          "name": "",
          "type": "address"
        }
      ],
      "stateMutability": "view",
      "type": "function",
      "constant": true
    },
    {
      "inputs": [
        {
          "internalType": "address",
          "name": "_itemOwner",
          "type": "address"
        }
      ],
      "name": "returnItemsOwnedTotal",
      "outputs": [
        {
          "internalType": "uint256",
          "name": "",
          "type": "uint256"
        }
      ],
      "stateMutability": "view",
      "type": "function",
      "constant": true
    },
    {
      "inputs": [
        {
          "internalType": "address",
          "name": "_item",
          "type": "address"
        }
      ],
      "name": "returnItemIndex",
      "outputs": [
        {
          "internalType": "uint256",
          "name": "",
          "type": "uint256"
        }
      ],
      "stateMutability": "view",
      "type": "function",
      "constant": true
    },
    {
      "inputs": [
        {
          "internalType": "uint256",
          "name": "_index",
          "type": "uint256"
        }
      ],
      "name": "returnItemPurchases",
      "outputs": [
        {
          "internalType": "uint256",
          "name": "",
          "type": "uint256"
        }
      ],
      "stateMutability": "view",
      "type": "function",
      "constant": true
    },
    {
      "inputs": [
        {
          "internalType": "uint256",
          "name": "_itemIndex",
          "type": "uint256"
        },
        {
          "internalType": "uint256",
          "name": "_transactionIndex",
          "type": "uint256"
        }
      ],
      "name": "returnOrderStatus",
      "outputs": [
        {
          "internalType": "uint256",
          "name": "",
          "type": "uint256"
        }
      ],
      "stateMutability": "view",
      "type": "function",
      "constant": true
    },
    {
      "inputs": [
        {
          "internalType": "uint256",
          "name": "_itemIndex",
          "type": "uint256"
        },
        {
          "internalType": "uint256",
          "name": "_transactionIndex",
          "type": "uint256"
        }
      ],
      "name": "returnBuyerAddress",
      "outputs": [
        {
          "internalType": "address",
          "name": "",
          "type": "address"
        }
      ],
      "stateMutability": "view",
      "type": "function",
      "constant": true
    },
    {
      "inputs": [],
      "name": "returnIndex",
      "outputs": [
        {
          "internalType": "uint256",
          "name": "",
          "type": "uint256"
        }
      ],
      "stateMutability": "view",
      "type": "function",
      "constant": true
    },
    {
      "inputs": [
        {
          "internalType": "uint256",
          "name": "_index",
          "type": "uint256"
        }
      ],
      "name": "returnItemAtIndex",
      "outputs": [
        {
          "internalType": "address",
          "name": "",
          "type": "address"
        }
      ],
      "stateMutability": "view",
      "type": "function",
      "constant": true
    }
  ],
  "bytecode": "0x608060405234801561001057600080fd5b50336000806101000a81548173ffffffffffffffffffffffffffffffffffffffff021916908373ffffffffffffffffffffffffffffffffffffffff160217905550613254806100606000396000f3fe608060405260043610620000fe5760003560e01c80639977b50d1162000097578063bd441a071162000061578063bd441a071462000377578063bfb231d214620003bb578063c07a41ff1462000405578063d58c7284146200044957620000fe565b80639977b50d146200027b578063998f495e14620002bf578063bbe1562714620002ef578063bcd4f88f146200033357620000fe565b806341bfe12e11620000d957806341bfe12e14620001b957806361c56f5314620001e757806374ff68b6146200022b57806394a927fe146200024b57620000fe565b8063108155bc1462000103578063200ba8dd14620001315780632207eaf91462000175575b600080fd5b3480156200011057600080fd5b506200012f6004803603810190620001299190620015bc565b6200048d565b005b3480156200013e57600080fd5b506200015d600480360381019062000157919062001637565b620007dd565b6040516200016c91906200167a565b60405180910390f35b3480156200018257600080fd5b50620001a160048036038101906200019b9190620016fc565b620007fd565b604051620001b091906200167a565b60405180910390f35b348015620001c657600080fd5b50620001e56004803603810190620001df91906200172e565b62000846565b005b348015620001f457600080fd5b506200021360048036038101906200020d9190620017a0565b6200097e565b604051620002229190620017f8565b60405180910390f35b62000249600480360381019062000243919062001815565b620009d3565b005b3480156200025857600080fd5b506200026362001071565b604051620002729190620017f8565b60405180910390f35b3480156200028857600080fd5b50620002a76004803603810190620002a19190620016fc565b6200109a565b604051620002b691906200167a565b60405180910390f35b348015620002cc57600080fd5b50620002d7620010e6565b604051620002e691906200167a565b60405180910390f35b348015620002fc57600080fd5b506200031b6004803603810190620003159190620016fc565b620010f0565b6040516200032a91906200167a565b60405180910390f35b3480156200034057600080fd5b506200035f6004803603810190620003599190620016fc565b6200110e565b6040516200036e91906200167a565b60405180910390f35b3480156200038457600080fd5b50620003a360048036038101906200039d919062001871565b62001126565b604051620003b29190620017f8565b60405180910390f35b348015620003c857600080fd5b50620003e76004803603810190620003e1919062001637565b620011a4565b604051620003fc9796959493929190620019b6565b60405180910390f35b3480156200041257600080fd5b506200043160048036038101906200042b9190620017a0565b620012b6565b6040516200044091906200167a565b60405180910390f35b3480156200045657600080fd5b506200047560048036038101906200046f919062001637565b6200130d565b604051620004849190620017f8565b60405180910390f35b6000838333426001543087604051620004a6906200134d565b620004b8979695949392919062001a3a565b604051809103906000f080158015620004d5573d6000803e3d6000fd5b509050836002600060015481526020019081526020016000206000019080519060200190620005069291906200135b565b503360026000600154815260200190815260200160002060010160006101000a81548173ffffffffffffffffffffffffffffffffffffffff021916908373ffffffffffffffffffffffffffffffffffffffff1602179055508260026000600154815260200190815260200160002060020181905550816002600060015481526020019081526020016000206003018190555042600260006001548152602001908152602001600020600401819055508060026000600154815260200190815260200160002060060160006101000a81548173ffffffffffffffffffffffffffffffffffffffff021916908373ffffffffffffffffffffffffffffffffffffffff16021790555080600360003373ffffffffffffffffffffffffffffffffffffffff1673ffffffffffffffffffffffffffffffffffffffff1681526020019081526020016000206001016000600360003373ffffffffffffffffffffffffffffffffffffffff1673ffffffffffffffffffffffffffffffffffffffff16815260200190815260200160002060000154815260200190815260200160002060006101000a81548173ffffffffffffffffffffffffffffffffffffffff021916908373ffffffffffffffffffffffffffffffffffffffff160217905550600360003373ffffffffffffffffffffffffffffffffffffffff1673ffffffffffffffffffffffffffffffffffffffff1681526020019081526020016000206000016000815480929190620007359062001aed565b9190505550600154600460008373ffffffffffffffffffffffffffffffffffffffff1673ffffffffffffffffffffffffffffffffffffffff168152602001908152602001600020819055507fca5585368d85299533de15b811903fb3e0bab33615d34e80673fa2aaca328f6a60015482604051620007b592919062001b3b565b60405180910390a160016000815480929190620007d29062001aed565b919050555050505050565b600060026000838152602001908152602001600020600501549050919050565b6000600460008373ffffffffffffffffffffffffffffffffffffffff1673ffffffffffffffffffffffffffffffffffffffff168152602001908152602001600020549050919050565b6002600085815260200190815260200160002060060160009054906101000a900473ffffffffffffffffffffffffffffffffffffffff1673ffffffffffffffffffffffffffffffffffffffff163373ffffffffffffffffffffffffffffffffffffffff1614620008ed576040517f08c379a0000000000000000000000000000000000000000000000000000000008152600401620008e49062001bde565b60405180910390fd5b826002600086815260200190815260200160002060010160006101000a81548173ffffffffffffffffffffffffffffffffffffffff021916908373ffffffffffffffffffffffffffffffffffffffff16021790555081600260008681526020019081526020016000206002018190555080600260008681526020019081526020016000206003018190555050505050565b600060026000848152602001908152602001600020600701600083815260200190815260200160002060010160009054906101000a900473ffffffffffffffffffffffffffffffffffffffff16905092915050565b6002600084815260200190815260200160002060060160009054906101000a900473ffffffffffffffffffffffffffffffffffffffff1673ffffffffffffffffffffffffffffffffffffffff163373ffffffffffffffffffffffffffffffffffffffff161462000a7a576040517f08c379a000000000000000000000000000000000000000000000000000000000815260040162000a719062001c76565b60405180910390fd5b600182101562000ac1576040517f08c379a000000000000000000000000000000000000000000000000000000000815260040162000ab89062001ce8565b60405180910390fd5b600260008481526020019081526020016000206003015482111562000b1d576040517f08c379a000000000000000000000000000000000000000000000000000000000815260040162000b149062001d5a565b60405180910390fd5b81600260008581526020019081526020016000206002015462000b41919062001d7c565b341462000b85576040517f08c379a000000000000000000000000000000000000000000000000000000000815260040162000b7c9062001e2d565b60405180910390fd5b6000600260008581526020019081526020016000206005015490506000606460053462000bb3919062001d7c565b62000bbf919062001e7e565b90506000813462000bd1919062001eb6565b905060006002600088815260200190815260200160002060010160009054906101000a900473ffffffffffffffffffffffffffffffffffffffff16905060008173ffffffffffffffffffffffffffffffffffffffff168360405162000c369062001f26565b60006040518083038185875af1925050503d806000811462000c75576040519150601f19603f3d011682016040523d82523d6000602084013e62000c7a565b606091505b505090508062000cc1576040517f08c379a000000000000000000000000000000000000000000000000000000000815260040162000cb89062001fb3565b60405180910390fd5b60008060009054906101000a900473ffffffffffffffffffffffffffffffffffffffff1673ffffffffffffffffffffffffffffffffffffffff168560405162000d0a9062001f26565b60006040518083038185875af1925050503d806000811462000d49576040519150601f19603f3d011682016040523d82523d6000602084013e62000d4e565b606091505b505090508062000d95576040517f08c379a000000000000000000000000000000000000000000000000000000000815260040162000d8c9062001fb3565b60405180910390fd5b600260008a815260200190815260200160002060060160009054906101000a900473ffffffffffffffffffffffffffffffffffffffff16600260008b8152602001908152602001600020600701600088815260200190815260200160002060000160006101000a81548173ffffffffffffffffffffffffffffffffffffffff021916908373ffffffffffffffffffffffffffffffffffffffff16021790555086600260008b8152602001908152602001600020600701600088815260200190815260200160002060010160006101000a81548173ffffffffffffffffffffffffffffffffffffffff021916908373ffffffffffffffffffffffffffffffffffffffff16021790555034600260008b815260200190815260200160002060070160008881526020019081526020016000206002018190555087600260008b815260200190815260200160002060070160008881526020019081526020016000206003018190555042600260008b81526020019081526020016000206007016000888152602001908152602001600020600401819055506000600260008b8152602001908152602001600020600701600088815260200190815260200160002060050160006101000a81548160ff0219169083600281111562000f7b5762000f7a62001fd5565b5b0217905550600260008a8152602001908152602001600020600501600081548092919062000fa99062001aed565b919050555087600260008b8152602001908152602001600020600301600082825462000fd6919062001eb6565b925050819055507f6fedb20c925c541cccc315e3b38f2191e4d9ff9889c88faa901285edd35443908988600260008d815260200190815260200160002060070160008a815260200190815260200160002060050160009054906101000a900460ff1660028111156200104d576200104c62001fd5565b5b6040516200105e9392919062002004565b60405180910390a1505050505050505050565b60008060009054906101000a900473ffffffffffffffffffffffffffffffffffffffff16905090565b6000600360008373ffffffffffffffffffffffffffffffffffffffff1673ffffffffffffffffffffffffffffffffffffffff168152602001908152602001600020600001549050919050565b6000600154905090565b60036020528060005260406000206000915090508060000154905081565b60046020528060005260406000206000915090505481565b6000600360008473ffffffffffffffffffffffffffffffffffffffff1673ffffffffffffffffffffffffffffffffffffffff168152602001908152602001600020600101600083815260200190815260200160002060009054906101000a900473ffffffffffffffffffffffffffffffffffffffff16905092915050565b6002602052806000526040600020600091509050806000018054620011c99062002070565b80601f0160208091040260200160405190810160405280929190818152602001828054620011f79062002070565b8015620012485780601f106200121c5761010080835404028352916020019162001248565b820191906000526020600020905b8154815290600101906020018083116200122a57829003601f168201915b5050505050908060010160009054906101000a900473ffffffffffffffffffffffffffffffffffffffff16908060020154908060030154908060040154908060050154908060060160009054906101000a900473ffffffffffffffffffffffffffffffffffffffff16905087565b600060026000848152602001908152602001600020600701600083815260200190815260200160002060050160009054906101000a900460ff16600281111562001305576200130462001fd5565b5b905092915050565b60006002600083815260200190815260200160002060060160009054906101000a900473ffffffffffffffffffffffffffffffffffffffff169050919050565b61117880620020a783390190565b828054620013699062002070565b90600052602060002090601f0160209004810192826200138d5760008555620013d9565b82601f10620013a857805160ff1916838001178555620013d9565b82800160010185558215620013d9579182015b82811115620013d8578251825591602001919060010190620013bb565b5b509050620013e89190620013ec565b5090565b5b8082111562001407576000816000905550600101620013ed565b5090565b6000604051905090565b600080fd5b600080fd5b600080fd5b600080fd5b6000601f19601f8301169050919050565b7f4e487b7100000000000000000000000000000000000000000000000000000000600052604160045260246000fd5b620014748262001429565b810181811067ffffffffffffffff821117156200149657620014956200143a565b5b80604052505050565b6000620014ab6200140b565b9050620014b9828262001469565b919050565b600067ffffffffffffffff821115620014dc57620014db6200143a565b5b620014e78262001429565b9050602081019050919050565b82818337600083830152505050565b60006200151a6200151484620014be565b6200149f565b90508281526020810184848401111562001539576200153862001424565b5b62001546848285620014f4565b509392505050565b600082601f8301126200156657620015656200141f565b5b81356200157884826020860162001503565b91505092915050565b6000819050919050565b620015968162001581565b8114620015a257600080fd5b50565b600081359050620015b6816200158b565b92915050565b600080600060608486031215620015d857620015d762001415565b5b600084013567ffffffffffffffff811115620015f957620015f86200141a565b5b62001607868287016200154e565b93505060206200161a86828701620015a5565b92505060406200162d86828701620015a5565b9150509250925092565b60006020828403121562001650576200164f62001415565b5b60006200166084828501620015a5565b91505092915050565b620016748162001581565b82525050565b600060208201905062001691600083018462001669565b92915050565b600073ffffffffffffffffffffffffffffffffffffffff82169050919050565b6000620016c48262001697565b9050919050565b620016d681620016b7565b8114620016e257600080fd5b50565b600081359050620016f681620016cb565b92915050565b60006020828403121562001715576200171462001415565b5b60006200172584828501620016e5565b91505092915050565b600080600080608085870312156200174b576200174a62001415565b5b60006200175b87828801620015a5565b94505060206200176e87828801620016e5565b93505060406200178187828801620015a5565b92505060606200179487828801620015a5565b91505092959194509250565b60008060408385031215620017ba57620017b962001415565b5b6000620017ca85828601620015a5565b9250506020620017dd85828601620015a5565b9150509250929050565b620017f281620016b7565b82525050565b60006020820190506200180f6000830184620017e7565b92915050565b60008060006060848603121562001831576200183062001415565b5b60006200184186828701620015a5565b93505060206200185486828701620015a5565b92505060406200186786828701620016e5565b9150509250925092565b600080604083850312156200188b576200188a62001415565b5b60006200189b85828601620016e5565b9250506020620018ae85828601620015a5565b9150509250929050565b600081519050919050565b600082825260208201905092915050565b60005b83811015620018f4578082015181840152602081019050620018d7565b8381111562001904576000848401525b50505050565b60006200191782620018b8565b620019238185620018c3565b935062001935818560208601620018d4565b620019408162001429565b840191505092915050565b6000819050919050565b600062001976620019706200196a8462001697565b6200194b565b62001697565b9050919050565b60006200198a8262001955565b9050919050565b60006200199e826200197d565b9050919050565b620019b08162001991565b82525050565b600060e0820190508181036000830152620019d2818a6200190a565b9050620019e36020830189620017e7565b620019f2604083018862001669565b62001a01606083018762001669565b62001a10608083018662001669565b62001a1f60a083018562001669565b62001a2e60c0830184620019a5565b98975050505050505050565b600060e082019050818103600083015262001a56818a6200190a565b905062001a67602083018962001669565b62001a766040830188620017e7565b62001a85606083018762001669565b62001a94608083018662001669565b62001aa360a0830185620017e7565b62001ab260c083018462001669565b98975050505050505050565b7f4e487b7100000000000000000000000000000000000000000000000000000000600052601160045260246000fd5b600062001afa8262001581565b91507fffffffffffffffffffffffffffffffffffffffffffffffffffffffffffffffff82141562001b305762001b2f62001abe565b5b600182019050919050565b600060408201905062001b52600083018562001669565b62001b616020830184620017e7565b9392505050565b7f46756e6369746f6e206e6f742063616c6c65642066726f6d204974656d20436f60008201527f6e74726163742e00000000000000000000000000000000000000000000000000602082015250565b600062001bc6602783620018c3565b915062001bd38262001b68565b604082019050919050565b6000602082019050818103600083015262001bf98162001bb7565b9050919050565b7f46756e6374696f6e206e6f742063616c6c65642066726f6d204974656d20436f60008201527f6e74726163742e00000000000000000000000000000000000000000000000000602082015250565b600062001c5e602783620018c3565b915062001c6b8262001c00565b604082019050919050565b6000602082019050818103600083015262001c918162001c4f565b9050919050565b7f4e6565642031206f72206d6f726520746f2070757263686173652e0000000000600082015250565b600062001cd0601b83620018c3565b915062001cdd8262001c98565b602082019050919050565b6000602082019050818103600083015262001d038162001cc1565b9050919050565b7f4e6f7420656e6f75676820696e2073746f636b2e000000000000000000000000600082015250565b600062001d42601483620018c3565b915062001d4f8262001d0a565b602082019050919050565b6000602082019050818103600083015262001d758162001d33565b9050919050565b600062001d898262001581565b915062001d968362001581565b9250817fffffffffffffffffffffffffffffffffffffffffffffffffffffffffffffffff048311821515161562001dd25762001dd162001abe565b5b828202905092915050565b7f4d75737420706179207370656369666965642070726963652e00000000000000600082015250565b600062001e15601983620018c3565b915062001e228262001ddd565b602082019050919050565b6000602082019050818103600083015262001e488162001e06565b9050919050565b7f4e487b7100000000000000000000000000000000000000000000000000000000600052601260045260246000fd5b600062001e8b8262001581565b915062001e988362001581565b92508262001eab5762001eaa62001e4f565b5b828204905092915050565b600062001ec38262001581565b915062001ed08362001581565b92508282101562001ee65762001ee562001abe565b5b828203905092915050565b600081905092915050565b50565b600062001f0e60008362001ef1565b915062001f1b8262001efc565b600082019050919050565b600062001f338262001eff565b9150819050919050565b7f5061796d656e7420646964206e6f742073656e64207375636365737366756c6c60008201527f792e20506c656173652074727920616761696e2e000000000000000000000000602082015250565b600062001f9b603483620018c3565b915062001fa88262001f3d565b604082019050919050565b6000602082019050818103600083015262001fce8162001f8c565b9050919050565b7f4e487b7100000000000000000000000000000000000000000000000000000000600052602160045260246000fd5b60006060820190506200201b600083018662001669565b6200202a6020830185620017e7565b62002039604083018462001669565b949350505050565b7f4e487b7100000000000000000000000000000000000000000000000000000000600052602260045260246000fd5b600060028204905060018216806200208957607f821691505b60208210811415620020a0576200209f62002041565b5b5091905056fe60806040523480156200001157600080fd5b5060405162001178380380620011788339818101604052810190620000379190620003e8565b86600290805190602001906200004f929190620000fb565b50856001819055508260008190555081600460006101000a81548173ffffffffffffffffffffffffffffffffffffffff021916908373ffffffffffffffffffffffffffffffffffffffff1602179055508060038190555084600660006101000a81548173ffffffffffffffffffffffffffffffffffffffff021916908373ffffffffffffffffffffffffffffffffffffffff16021790555083600581905550505050505050506200051f565b8280546200010990620004e9565b90600052602060002090601f0160209004810192826200012d576000855562000179565b82601f106200014857805160ff191683800117855562000179565b8280016001018555821562000179579182015b82811115620001785782518255916020019190600101906200015b565b5b5090506200018891906200018c565b5090565b5b80821115620001a75760008160009055506001016200018d565b5090565b6000604051905090565b600080fd5b600080fd5b600080fd5b600080fd5b6000601f19601f8301169050919050565b7f4e487b7100000000000000000000000000000000000000000000000000000000600052604160045260246000fd5b6200021482620001c9565b810181811067ffffffffffffffff82111715620002365762000235620001da565b5b80604052505050565b60006200024b620001ab565b905062000259828262000209565b919050565b600067ffffffffffffffff8211156200027c576200027b620001da565b5b6200028782620001c9565b9050602081019050919050565b60005b83811015620002b457808201518184015260208101905062000297565b83811115620002c4576000848401525b50505050565b6000620002e1620002db846200025e565b6200023f565b9050828152602081018484840111156200030057620002ff620001c4565b5b6200030d84828562000294565b509392505050565b600082601f8301126200032d576200032c620001bf565b5b81516200033f848260208601620002ca565b91505092915050565b6000819050919050565b6200035d8162000348565b81146200036957600080fd5b50565b6000815190506200037d8162000352565b92915050565b600073ffffffffffffffffffffffffffffffffffffffff82169050919050565b6000620003b08262000383565b9050919050565b620003c281620003a3565b8114620003ce57600080fd5b50565b600081519050620003e281620003b7565b92915050565b600080600080600080600060e0888a0312156200040a5762000409620001b5565b5b600088015167ffffffffffffffff8111156200042b576200042a620001ba565b5b620004398a828b0162000315565b97505060206200044c8a828b016200036c565b96505060406200045f8a828b01620003d1565b9550506060620004728a828b016200036c565b9450506080620004858a828b016200036c565b93505060a0620004988a828b01620003d1565b92505060c0620004ab8a828b016200036c565b91505092959891949750929550565b7f4e487b7100000000000000000000000000000000000000000000000000000000600052602260045260246000fd5b600060028204905060018216806200050257607f821691505b60208210811415620005195762000518620004ba565b5b50919050565b610c49806200052f6000396000f3fe6080604052600436106100595760003560e01c806310cb4b1a1461006957806341bfe12e146100945780635ea5cabe146100bd5780639a937afb146100e8578063c290d69114610113578063ec52aa721461012f5761005a565b5b34801561006657600080fd5b50005b34801561007557600080fd5b5061007e61015a565b60405161008b9190610656565b60405180910390f35b3480156100a057600080fd5b506100bb60048036038101906100b69190610700565b610164565b005b3480156100c957600080fd5b506100d26103ae565b6040516100df9190610800565b60405180910390f35b3480156100f457600080fd5b506100fd610440565b60405161010a9190610831565b60405180910390f35b61012d6004803603810190610128919061084c565b61046a565b005b34801561013b57600080fd5b50610144610633565b6040516101519190610656565b60405180910390f35b6000600154905090565b600660009054906101000a900473ffffffffffffffffffffffffffffffffffffffff1673ffffffffffffffffffffffffffffffffffffffff163373ffffffffffffffffffffffffffffffffffffffff16146101f4576040517f08c379a00000000000000000000000000000000000000000000000000000000081526004016101eb906108eb565b60405180910390fd5b6000600460009054906101000a900473ffffffffffffffffffffffffffffffffffffffff1673ffffffffffffffffffffffffffffffffffffffff16600086868686604051602401610248949392919061090b565b6040516020818303038152906040527f41bfe12e000000000000000000000000000000000000000000000000000000007bffffffffffffffffffffffffffffffffffffffffffffffffffffffff19166020820180517bffffffffffffffffffffffffffffffffffffffffffffffffffffffff83818316178352505050506040516102d29190610997565b60006040518083038185875af1925050503d806000811461030f576040519150601f19603f3d011682016040523d82523d6000602084013e610314565b606091505b5050905080610358576040517f08c379a000000000000000000000000000000000000000000000000000000000815260040161034f90610a20565b60405180910390fd5b83600660006101000a81548173ffffffffffffffffffffffffffffffffffffffff021916908373ffffffffffffffffffffffffffffffffffffffff16021790555082600181905550816003819055505050505050565b6060600280546103bd90610a6f565b80601f01602080910402602001604051908101604052809291908181526020018280546103e990610a6f565b80156104365780601f1061040b57610100808354040283529160200191610436565b820191906000526020600020905b81548152906001019060200180831161041957829003601f168201915b5050505050905090565b6000600660009054906101000a900473ffffffffffffffffffffffffffffffffffffffff16905090565b60018110156104ae576040517f08c379a00000000000000000000000000000000000000000000000000000000081526004016104a590610aed565b60405180910390fd5b6003548111156104f3576040517f08c379a00000000000000000000000000000000000000000000000000000000081526004016104ea90610b59565b60405180910390fd5b6000600460009054906101000a900473ffffffffffffffffffffffffffffffffffffffff1673ffffffffffffffffffffffffffffffffffffffff1634600054843360405160240161054693929190610b79565b6040516020818303038152906040527f74ff68b6000000000000000000000000000000000000000000000000000000007bffffffffffffffffffffffffffffffffffffffffffffffffffffffff19166020820180517bffffffffffffffffffffffffffffffffffffffffffffffffffffffff83818316178352505050506040516105d09190610997565b60006040518083038185875af1925050503d806000811461060d576040519150601f19603f3d011682016040523d82523d6000602084013e610612565b606091505b5050905081600360008282546106289190610bdf565b925050819055505050565b6000600354905090565b6000819050919050565b6106508161063d565b82525050565b600060208201905061066b6000830184610647565b92915050565b600080fd5b61067f8161063d565b811461068a57600080fd5b50565b60008135905061069c81610676565b92915050565b600073ffffffffffffffffffffffffffffffffffffffff82169050919050565b60006106cd826106a2565b9050919050565b6106dd816106c2565b81146106e857600080fd5b50565b6000813590506106fa816106d4565b92915050565b6000806000806080858703121561071a57610719610671565b5b60006107288782880161068d565b9450506020610739878288016106eb565b935050604061074a8782880161068d565b925050606061075b8782880161068d565b91505092959194509250565b600081519050919050565b600082825260208201905092915050565b60005b838110156107a1578082015181840152602081019050610786565b838111156107b0576000848401525b50505050565b6000601f19601f8301169050919050565b60006107d282610767565b6107dc8185610772565b93506107ec818560208601610783565b6107f5816107b6565b840191505092915050565b6000602082019050818103600083015261081a81846107c7565b905092915050565b61082b816106c2565b82525050565b60006020820190506108466000830184610822565b92915050565b60006020828403121561086257610861610671565b5b60006108708482850161068d565b91505092915050565b7f596f7520646f206e6f7420686176652061636365737320746f2065646974207460008201527f686973206974656d2e0000000000000000000000000000000000000000000000602082015250565b60006108d5602983610772565b91506108e082610879565b604082019050919050565b60006020820190508181036000830152610904816108c8565b9050919050565b60006080820190506109206000830187610647565b61092d6020830186610822565b61093a6040830185610647565b6109476060830184610647565b95945050505050565b600081519050919050565b600081905092915050565b600061097182610950565b61097b818561095b565b935061098b818560208601610783565b80840191505092915050565b60006109a38284610966565b915081905092915050565b7f43616c6c20776173206e6f74207375636365737366756c2e20506c656173652060008201527f74727920616761696e2e00000000000000000000000000000000000000000000602082015250565b6000610a0a602a83610772565b9150610a15826109ae565b604082019050919050565b60006020820190508181036000830152610a39816109fd565b9050919050565b7f4e487b7100000000000000000000000000000000000000000000000000000000600052602260045260246000fd5b60006002820490506001821680610a8757607f821691505b60208210811415610a9b57610a9a610a40565b5b50919050565b7f4e6565642031206f72206d6f726520746f2070757263686173652e0000000000600082015250565b6000610ad7601b83610772565b9150610ae282610aa1565b602082019050919050565b60006020820190508181036000830152610b0681610aca565b9050919050565b7f4e6f7420656e6f75676820696e2073746f636b2e000000000000000000000000600082015250565b6000610b43601483610772565b9150610b4e82610b0d565b602082019050919050565b60006020820190508181036000830152610b7281610b36565b9050919050565b6000606082019050610b8e6000830186610647565b610b9b6020830185610647565b610ba86040830184610822565b949350505050565b7f4e487b7100000000000000000000000000000000000000000000000000000000600052601160045260246000fd5b6000610bea8261063d565b9150610bf58361063d565b925082821015610c0857610c07610bb0565b5b82820390509291505056fea26469706673582212208c984d0d62df3052fa930a187ef45705ca91f57f3355c9a4974ed88c0c588b5764736f6c634300080a0033a264697066735822122002d86615f5f9474d5dc24fa728f650cf4643244018899b8fa2e459868841811b64736f6c634300080a0033",
  "immutableReferences": {},
  "source": "pragma solidity ^0.8.7;\r\nimport './Ownable.sol';\r\nimport './Item.sol';\r\n\r\ncontract Store is Ownable {\r\n    uint index;\r\n    enum SupplyStatus{ Purchased, InTransit, Delivered }\r\n\r\n    event ItemEvent(uint _itemIndex, address _itemAddress);\r\n    event PaymentEvent(uint _itemIndex, address _buyerAddr, uint _status);\r\n\r\n    struct S_Payment {\r\n        address _item;\r\n        address _buyer;\r\n        uint _value;\r\n        uint _quantity;\r\n        uint _timePurchased;\r\n        Store.SupplyStatus _status;\r\n    }\r\n\r\n    struct S_Item {\r\n        string _identifier;\r\n        address _itemOwner;\r\n        uint _price;\r\n        uint _quantity;\r\n        uint _timeCreated;\r\n        uint _purchases;\r\n        Item _item;\r\n        mapping(uint => S_Payment) _payments;\r\n    }\r\n\r\n    struct S_Profile {\r\n        uint _itemsOwned;\r\n        mapping(uint => address) _items;\r\n    }\r\n\r\n    mapping(uint => S_Item) public items;\r\n    mapping(address => S_Profile) public profiles;\r\n    mapping(address => uint) public itemIndex;\r\n\r\n    function createItem(string memory _name, uint _price, uint _quantity) public {\r\n        Item item = new Item(_name, _price, msg.sender, block.timestamp, index, address(this), _quantity);\r\n\r\n        items[index]._identifier = _name;\r\n        items[index]._itemOwner = msg.sender;\r\n        items[index]._price = _price;\r\n        items[index]._quantity = _quantity;\r\n        items[index]._timeCreated = block.timestamp;\r\n        items[index]._item = item;\r\n\r\n        profiles[msg.sender]._items[profiles[msg.sender]._itemsOwned] = address(item);\r\n        profiles[msg.sender]._itemsOwned++;\r\n\r\n        itemIndex[address(item)] = index;\r\n\r\n        emit ItemEvent(index, address(item));\r\n        index++;\r\n    }\r\n\r\n    function triggerPayment(uint _itemIndex, uint _quantity, address _buyer) public payable {\r\n        require(msg.sender == address(items[_itemIndex]._item), \"Function not called from Item Contract.\");\r\n        require(_quantity >= 1, \"Need 1 or more to purchase.\");\r\n        require(_quantity <= items[_itemIndex]._quantity, \"Not enough in stock.\");\r\n        require(msg.value == items[_itemIndex]._price * _quantity, \"Must pay specified price.\"); \r\n\r\n        uint purchaseIndex = items[_itemIndex]._purchases;\r\n        uint comission = msg.value * 5 / 100;\r\n        uint itemOwnerPay = msg.value - comission;\r\n        address itemOwner = items[_itemIndex]._itemOwner;\r\n\r\n        (bool itemOwnerSuccess, ) = itemOwner.call{ value: itemOwnerPay }('');\r\n        require(itemOwnerSuccess, \"Payment did not send successfully. Please try again.\");\r\n        (bool ownerSuccess, ) = owner.call{ value: comission }('');\r\n        require(ownerSuccess, \"Payment did not send successfully. Please try again.\");\r\n\r\n        items[_itemIndex]._payments[purchaseIndex]._item = address(items[_itemIndex]._item);\r\n        items[_itemIndex]._payments[purchaseIndex]._buyer = _buyer;\r\n        items[_itemIndex]._payments[purchaseIndex]._value = msg.value;\r\n        items[_itemIndex]._payments[purchaseIndex]._quantity = _quantity;\r\n        items[_itemIndex]._payments[purchaseIndex]._timePurchased = block.timestamp;\r\n        items[_itemIndex]._payments[purchaseIndex]._status = SupplyStatus.Purchased;\r\n\r\n        items[_itemIndex]._purchases++;\r\n        items[_itemIndex]._quantity -= _quantity;\r\n\r\n        emit PaymentEvent(_itemIndex, _buyer, uint(items[_itemIndex]._payments[purchaseIndex]._status));\r\n    }\r\n\r\n    function editItem(uint _index, address _itemOwner, uint _price, uint _quantity) public {\r\n        require(msg.sender == address(items[_index]._item), \"Funciton not called from Item Contract.\");\r\n        items[_index]._itemOwner = _itemOwner;\r\n        items[_index]._price = _price;\r\n        items[_index]._quantity = _quantity;\r\n    }\r\n\r\n    function returnOwner() public view returns(address) {\r\n        return owner;\r\n    }\r\n\r\n    function returnItemsOwnedByAddress(address _itemOwner, uint _index) public view returns(address) {\r\n        return profiles[_itemOwner]._items[_index];\r\n    }\r\n\r\n    function returnItemsOwnedTotal(address _itemOwner) public view returns(uint) {\r\n        return profiles[_itemOwner]._itemsOwned;\r\n    }\r\n\r\n    function returnItemIndex(address _item) public view returns(uint) {\r\n        return itemIndex[_item];\r\n    }\r\n\r\n    function returnItemPurchases(uint _index) public view returns(uint) {\r\n        return items[_index]._purchases;\r\n    }\r\n\r\n    function returnOrderStatus(uint _itemIndex, uint _transactionIndex) public view returns(uint) {\r\n        return uint(items[_itemIndex]._payments[_transactionIndex]._status);\r\n    }\r\n    \r\n    function returnBuyerAddress(uint _itemIndex, uint _transactionIndex) public view returns(address) {\r\n        return items[_itemIndex]._payments[_transactionIndex]._buyer;\r\n    }\r\n\r\n    function returnIndex() public view returns(uint) {\r\n        return index;\r\n    }\r\n\r\n    function returnItemAtIndex(uint _index) public view returns(address) {\r\n        return address(items[_index]._item);\r\n    }\r\n}",
  "sourcePath": "C:\\Users\\dernl\\Documents\\Projects\\Solidity\\learning\\testProject\\react\\contracts\\Store.sol",
  "compiler": {
    "name": "solc",
    "version": "0.8.10+commit.fc410830.Emscripten.clang"
  },
  "schemaVersion": "3.4.3",
  "updatedAt": "2021-11-24T20:28:17.077Z",
  "networkType": "ethereum",
  "devdoc": {
    "kind": "dev",
    "methods": {},
    "version": 1
  },
  "userdoc": {
    "kind": "user",
    "methods": {},
    "version": 1
  }
}