{
  "contractName": "Store",
  "abi": [
    {
      "anonymous": false,
      "inputs": [
        {
          "indexed": false,
          "internalType": "uint256",
          "name": "_itemIndex",
          "type": "uint256"
        },
        {
          "indexed": false,
          "internalType": "address",
          "name": "_itemAddress",
          "type": "address"
        }
      ],
      "name": "ItemEvent",
      "type": "event"
    },
    {
      "anonymous": false,
      "inputs": [
        {
          "indexed": false,
          "internalType": "uint256",
          "name": "_status",
          "type": "uint256"
        }
      ],
      "name": "PaymentEvent",
      "type": "event"
    },
    {
      "inputs": [
        {
          "internalType": "uint256",
          "name": "",
          "type": "uint256"
        }
      ],
      "name": "items",
      "outputs": [
        {
          "internalType": "string",
          "name": "_identifier",
          "type": "string"
        },
        {
          "internalType": "address",
          "name": "_itemOwner",
          "type": "address"
        },
        {
          "internalType": "uint256",
          "name": "_price",
          "type": "uint256"
        },
        {
          "internalType": "uint256",
          "name": "_quantity",
          "type": "uint256"
        },
        {
          "internalType": "uint256",
          "name": "_timeCreated",
          "type": "uint256"
        },
        {
          "internalType": "uint256",
          "name": "_purchases",
          "type": "uint256"
        },
        {
          "internalType": "contract Item",
          "name": "_item",
          "type": "address"
        }
      ],
      "stateMutability": "view",
      "type": "function",
      "constant": true
    },
    {
      "inputs": [
        {
          "internalType": "string",
          "name": "_name",
          "type": "string"
        },
        {
          "internalType": "uint256",
          "name": "_price",
          "type": "uint256"
        },
        {
          "internalType": "uint256",
          "name": "_quantity",
          "type": "uint256"
        }
      ],
      "name": "createItem",
      "outputs": [],
      "stateMutability": "nonpayable",
      "type": "function"
    },
    {
      "inputs": [
        {
          "internalType": "uint256",
          "name": "_itemIndex",
          "type": "uint256"
        },
        {
          "internalType": "uint256",
          "name": "_quantity",
          "type": "uint256"
        }
      ],
      "name": "triggerPayment",
      "outputs": [],
      "stateMutability": "payable",
      "type": "function",
      "payable": true
    },
    {
      "inputs": [
        {
          "internalType": "uint256",
          "name": "_index",
          "type": "uint256"
        },
        {
          "internalType": "address",
          "name": "_itemOwner",
          "type": "address"
        },
        {
          "internalType": "uint256",
          "name": "_price",
          "type": "uint256"
        },
        {
          "internalType": "uint256",
          "name": "_quantity",
          "type": "uint256"
        }
      ],
      "name": "editItem",
      "outputs": [],
      "stateMutability": "nonpayable",
      "type": "function"
    },
    {
      "inputs": [],
      "name": "returnOwner",
      "outputs": [
        {
          "internalType": "address",
          "name": "",
          "type": "address"
        }
      ],
      "stateMutability": "view",
      "type": "function",
      "constant": true
    }
  ],
  "bytecode": "0x608060405234801561001057600080fd5b50336000806101000a81548173ffffffffffffffffffffffffffffffffffffffff021916908373ffffffffffffffffffffffffffffffffffffffff160217905550612526806100606000396000f3fe608060405260043610620000505760003560e01c8063108155bc146200005557806341bfe12e14620000835780637bf4d41514620000b157806394a927fe14620000d1578063bfb231d21462000101575b600080fd5b3480156200006257600080fd5b506200008160048036038101906200007b919062000e1b565b6200014b565b005b3480156200009057600080fd5b50620000af6004803603810190620000a9919062000efb565b62000325565b005b620000cf6004803603810190620000c9919062000f6d565b6200045d565b005b348015620000de57600080fd5b50620000e962000a71565b604051620000f8919062000fc5565b60405180910390f35b3480156200010e57600080fd5b506200012d600480360381019062000127919062000fe2565b62000a9a565b60405162000142979695949392919062001123565b60405180910390f35b60008383334260015430604051620001639062000bac565b6200017496959493929190620011a7565b604051809103906000f08015801562000191573d6000803e3d6000fd5b509050836002600060015481526020019081526020016000206000019080519060200190620001c292919062000bba565b503360026000600154815260200190815260200160002060010160006101000a81548173ffffffffffffffffffffffffffffffffffffffff021916908373ffffffffffffffffffffffffffffffffffffffff1602179055508260026000600154815260200190815260200160002060020181905550816002600060015481526020019081526020016000206003018190555042600260006001548152602001908152602001600020600401819055508060026000600154815260200190815260200160002060060160006101000a81548173ffffffffffffffffffffffffffffffffffffffff021916908373ffffffffffffffffffffffffffffffffffffffff1602179055507fca5585368d85299533de15b811903fb3e0bab33615d34e80673fa2aaca328f6a60015482604051620002fd9291906200121b565b60405180910390a1600160008154809291906200031a9062001277565b919050555050505050565b6002600085815260200190815260200160002060060160009054906101000a900473ffffffffffffffffffffffffffffffffffffffff1673ffffffffffffffffffffffffffffffffffffffff163373ffffffffffffffffffffffffffffffffffffffff1614620003cc576040517f08c379a0000000000000000000000000000000000000000000000000000000008152600401620003c3906200133b565b60405180910390fd5b826002600086815260200190815260200160002060010160006101000a81548173ffffffffffffffffffffffffffffffffffffffff021916908373ffffffffffffffffffffffffffffffffffffffff16021790555081600260008681526020019081526020016000206002018190555080600260008681526020019081526020016000206003018190555050505050565b6002600083815260200190815260200160002060060160009054906101000a900473ffffffffffffffffffffffffffffffffffffffff1673ffffffffffffffffffffffffffffffffffffffff163373ffffffffffffffffffffffffffffffffffffffff161462000504576040517f08c379a0000000000000000000000000000000000000000000000000000000008152600401620004fb90620013d3565b60405180910390fd5b60018110156200054b576040517f08c379a0000000000000000000000000000000000000000000000000000000008152600401620005429062001445565b60405180910390fd5b6002600083815260200190815260200160002060030154811115620005a7576040517f08c379a00000000000000000000000000000000000000000000000000000000081526004016200059e90620014b7565b60405180910390fd5b806002600084815260200190815260200160002060020154620005cb9190620014d9565b34146200060f576040517f08c379a000000000000000000000000000000000000000000000000000000000815260040162000606906200158a565b60405180910390fd5b600060026000848152602001908152602001600020600501549050600060646005346200063d9190620014d9565b620006499190620015db565b9050600081346200065b919062001613565b905060006002600087815260200190815260200160002060010160009054906101000a900473ffffffffffffffffffffffffffffffffffffffff16905060008173ffffffffffffffffffffffffffffffffffffffff1683604051620006c09062001683565b60006040518083038185875af1925050503d8060008114620006ff576040519150601f19603f3d011682016040523d82523d6000602084013e62000704565b606091505b50509050806200074b576040517f08c379a0000000000000000000000000000000000000000000000000000000008152600401620007429062001710565b60405180910390fd5b60008060009054906101000a900473ffffffffffffffffffffffffffffffffffffffff1673ffffffffffffffffffffffffffffffffffffffff1685604051620007949062001683565b60006040518083038185875af1925050503d8060008114620007d3576040519150601f19603f3d011682016040523d82523d6000602084013e620007d8565b606091505b50509050806200081f576040517f08c379a0000000000000000000000000000000000000000000000000000000008152600401620008169062001710565b60405180910390fd5b6002600089815260200190815260200160002060060160009054906101000a900473ffffffffffffffffffffffffffffffffffffffff16600260008a8152602001908152602001600020600701600088815260200190815260200160002060000160006101000a81548173ffffffffffffffffffffffffffffffffffffffff021916908373ffffffffffffffffffffffffffffffffffffffff16021790555033600260008a8152602001908152602001600020600701600088815260200190815260200160002060010160006101000a81548173ffffffffffffffffffffffffffffffffffffffff021916908373ffffffffffffffffffffffffffffffffffffffff16021790555034600260008a815260200190815260200160002060070160008881526020019081526020016000206002018190555086600260008a815260200190815260200160002060070160008881526020019081526020016000206003018190555042600260008a81526020019081526020016000206007016000888152602001908152602001600020600401819055506000600260008a8152602001908152602001600020600701600088815260200190815260200160002060050160006101000a81548160ff0219169083600281111562000a055762000a0462001732565b5b021790555060026000898152602001908152602001600020600501600081548092919062000a339062001277565b919050555086600260008a8152602001908152602001600020600301600082825462000a60919062001613565b925050819055505050505050505050565b60008060009054906101000a900473ffffffffffffffffffffffffffffffffffffffff16905090565b600260205280600052604060002060009150905080600001805462000abf9062001790565b80601f016020809104026020016040519081016040528092919081815260200182805462000aed9062001790565b801562000b3e5780601f1062000b125761010080835404028352916020019162000b3e565b820191906000526020600020905b81548152906001019060200180831162000b2057829003601f168201915b5050505050908060010160009054906101000a900473ffffffffffffffffffffffffffffffffffffffff16908060020154908060030154908060040154908060050154908060060160009054906101000a900473ffffffffffffffffffffffffffffffffffffffff16905087565b610d2a80620017c783390190565b82805462000bc89062001790565b90600052602060002090601f01602090048101928262000bec576000855562000c38565b82601f1062000c0757805160ff191683800117855562000c38565b8280016001018555821562000c38579182015b8281111562000c3757825182559160200191906001019062000c1a565b5b50905062000c47919062000c4b565b5090565b5b8082111562000c6657600081600090555060010162000c4c565b5090565b6000604051905090565b600080fd5b600080fd5b600080fd5b600080fd5b6000601f19601f8301169050919050565b7f4e487b7100000000000000000000000000000000000000000000000000000000600052604160045260246000fd5b62000cd38262000c88565b810181811067ffffffffffffffff8211171562000cf55762000cf462000c99565b5b80604052505050565b600062000d0a62000c6a565b905062000d18828262000cc8565b919050565b600067ffffffffffffffff82111562000d3b5762000d3a62000c99565b5b62000d468262000c88565b9050602081019050919050565b82818337600083830152505050565b600062000d7962000d738462000d1d565b62000cfe565b90508281526020810184848401111562000d985762000d9762000c83565b5b62000da584828562000d53565b509392505050565b600082601f83011262000dc55762000dc462000c7e565b5b813562000dd784826020860162000d62565b91505092915050565b6000819050919050565b62000df58162000de0565b811462000e0157600080fd5b50565b60008135905062000e158162000dea565b92915050565b60008060006060848603121562000e375762000e3662000c74565b5b600084013567ffffffffffffffff81111562000e585762000e5762000c79565b5b62000e668682870162000dad565b935050602062000e798682870162000e04565b925050604062000e8c8682870162000e04565b9150509250925092565b600073ffffffffffffffffffffffffffffffffffffffff82169050919050565b600062000ec38262000e96565b9050919050565b62000ed58162000eb6565b811462000ee157600080fd5b50565b60008135905062000ef58162000eca565b92915050565b6000806000806080858703121562000f185762000f1762000c74565b5b600062000f288782880162000e04565b945050602062000f3b8782880162000ee4565b935050604062000f4e8782880162000e04565b925050606062000f618782880162000e04565b91505092959194509250565b6000806040838503121562000f875762000f8662000c74565b5b600062000f978582860162000e04565b925050602062000faa8582860162000e04565b9150509250929050565b62000fbf8162000eb6565b82525050565b600060208201905062000fdc600083018462000fb4565b92915050565b60006020828403121562000ffb5762000ffa62000c74565b5b60006200100b8482850162000e04565b91505092915050565b600081519050919050565b600082825260208201905092915050565b60005b838110156200105057808201518184015260208101905062001033565b8381111562001060576000848401525b50505050565b6000620010738262001014565b6200107f81856200101f565b93506200109181856020860162001030565b6200109c8162000c88565b840191505092915050565b620010b28162000de0565b82525050565b6000819050919050565b6000620010e3620010dd620010d78462000e96565b620010b8565b62000e96565b9050919050565b6000620010f782620010c2565b9050919050565b60006200110b82620010ea565b9050919050565b6200111d81620010fe565b82525050565b600060e08201905081810360008301526200113f818a62001066565b905062001150602083018962000fb4565b6200115f6040830188620010a7565b6200116e6060830187620010a7565b6200117d6080830186620010a7565b6200118c60a0830185620010a7565b6200119b60c083018462001112565b98975050505050505050565b600060c0820190508181036000830152620011c3818962001066565b9050620011d46020830188620010a7565b620011e3604083018762000fb4565b620011f26060830186620010a7565b620012016080830185620010a7565b6200121060a083018462000fb4565b979650505050505050565b6000604082019050620012326000830185620010a7565b62001241602083018462000fb4565b9392505050565b7f4e487b7100000000000000000000000000000000000000000000000000000000600052601160045260246000fd5b6000620012848262000de0565b91507fffffffffffffffffffffffffffffffffffffffffffffffffffffffffffffffff821415620012ba57620012b962001248565b5b600182019050919050565b7f46756e6369746f6e206e6f742063616c6c65642066726f6d204974656d20436f60008201527f6e74726163742e00000000000000000000000000000000000000000000000000602082015250565b6000620013236027836200101f565b91506200133082620012c5565b604082019050919050565b60006020820190508181036000830152620013568162001314565b9050919050565b7f46756e6374696f6e206e6f742063616c6c65642066726f6d204974656d20436f60008201527f6e74726163742e00000000000000000000000000000000000000000000000000602082015250565b6000620013bb6027836200101f565b9150620013c8826200135d565b604082019050919050565b60006020820190508181036000830152620013ee81620013ac565b9050919050565b7f4e6565642031206f72206d6f726520746f2070757263686173652e0000000000600082015250565b60006200142d601b836200101f565b91506200143a82620013f5565b602082019050919050565b6000602082019050818103600083015262001460816200141e565b9050919050565b7f4e6f7420656e6f75676820696e2073746f636b2e000000000000000000000000600082015250565b60006200149f6014836200101f565b9150620014ac8262001467565b602082019050919050565b60006020820190508181036000830152620014d28162001490565b9050919050565b6000620014e68262000de0565b9150620014f38362000de0565b9250817fffffffffffffffffffffffffffffffffffffffffffffffffffffffffffffffff04831182151516156200152f576200152e62001248565b5b828202905092915050565b7f4d75737420706179207370656369666965642070726963652e00000000000000600082015250565b6000620015726019836200101f565b91506200157f826200153a565b602082019050919050565b60006020820190508181036000830152620015a58162001563565b9050919050565b7f4e487b7100000000000000000000000000000000000000000000000000000000600052601260045260246000fd5b6000620015e88262000de0565b9150620015f58362000de0565b925082620016085762001607620015ac565b5b828204905092915050565b6000620016208262000de0565b91506200162d8362000de0565b92508282101562001643576200164262001248565b5b828203905092915050565b600081905092915050565b50565b60006200166b6000836200164e565b9150620016788262001659565b600082019050919050565b600062001690826200165c565b9150819050919050565b7f5061796d656e7420646964206e6f742073656e64207375636365737366756c6c60008201527f792e20506c656173652074727920616761696e2e000000000000000000000000602082015250565b6000620016f86034836200101f565b915062001705826200169a565b604082019050919050565b600060208201905081810360008301526200172b81620016e9565b9050919050565b7f4e487b7100000000000000000000000000000000000000000000000000000000600052602160045260246000fd5b7f4e487b7100000000000000000000000000000000000000000000000000000000600052602260045260246000fd5b60006002820490506001821680620017a957607f821691505b60208210811415620017c057620017bf62001761565b5b5091905056fe60806040523480156200001157600080fd5b5060405162000d2a38038062000d2a8339818101604052810190620000379190620003e0565b85600290805190602001906200004f929190620000f3565b50846001819055508160008190555080600360006101000a81548173ffffffffffffffffffffffffffffffffffffffff021916908373ffffffffffffffffffffffffffffffffffffffff16021790555083600560006101000a81548173ffffffffffffffffffffffffffffffffffffffff021916908373ffffffffffffffffffffffffffffffffffffffff1602179055508260048190555050505050505062000500565b8280546200010190620004ca565b90600052602060002090601f01602090048101928262000125576000855562000171565b82601f106200014057805160ff191683800117855562000171565b8280016001018555821562000171579182015b828111156200017057825182559160200191906001019062000153565b5b50905062000180919062000184565b5090565b5b808211156200019f57600081600090555060010162000185565b5090565b6000604051905090565b600080fd5b600080fd5b600080fd5b600080fd5b6000601f19601f8301169050919050565b7f4e487b7100000000000000000000000000000000000000000000000000000000600052604160045260246000fd5b6200020c82620001c1565b810181811067ffffffffffffffff821117156200022e576200022d620001d2565b5b80604052505050565b600062000243620001a3565b905062000251828262000201565b919050565b600067ffffffffffffffff821115620002745762000273620001d2565b5b6200027f82620001c1565b9050602081019050919050565b60005b83811015620002ac5780820151818401526020810190506200028f565b83811115620002bc576000848401525b50505050565b6000620002d9620002d38462000256565b62000237565b905082815260208101848484011115620002f857620002f7620001bc565b5b620003058482856200028c565b509392505050565b600082601f830112620003255762000324620001b7565b5b815162000337848260208601620002c2565b91505092915050565b6000819050919050565b620003558162000340565b81146200036157600080fd5b50565b60008151905062000375816200034a565b92915050565b600073ffffffffffffffffffffffffffffffffffffffff82169050919050565b6000620003a8826200037b565b9050919050565b620003ba816200039b565b8114620003c657600080fd5b50565b600081519050620003da81620003af565b92915050565b60008060008060008060c087890312156200040057620003ff620001ad565b5b600087015167ffffffffffffffff811115620004215762000420620001b2565b5b6200042f89828a016200030d565b96505060206200044289828a0162000364565b95505060406200045589828a01620003c9565b94505060606200046889828a0162000364565b93505060806200047b89828a0162000364565b92505060a06200048e89828a01620003c9565b9150509295509295509295565b7f4e487b7100000000000000000000000000000000000000000000000000000000600052602260045260246000fd5b60006002820490506001821680620004e357607f821691505b60208210811415620004fa57620004f96200049b565b5b50919050565b61081a80620005106000396000f3fe6080604052600436106100385760003560e01c806341bfe12e146100485780639a937afb14610071578063c290d6911461009c57610039565b5b34801561004557600080fd5b50005b34801561005457600080fd5b5061006f600480360381019061006a91906104e3565b6100b8565b005b34801561007d57600080fd5b506100866102fb565b6040516100939190610559565b60405180910390f35b6100b660048036038101906100b19190610574565b610325565b005b600560009054906101000a900473ffffffffffffffffffffffffffffffffffffffff1673ffffffffffffffffffffffffffffffffffffffff163373ffffffffffffffffffffffffffffffffffffffff1614610148576040517f08c379a000000000000000000000000000000000000000000000000000000000815260040161013f90610624565b60405180910390fd5b6000600360009054906101000a900473ffffffffffffffffffffffffffffffffffffffff1673ffffffffffffffffffffffffffffffffffffffff1660008686868660405160240161019c9493929190610653565b6040516020818303038152906040527f41bfe12e000000000000000000000000000000000000000000000000000000007bffffffffffffffffffffffffffffffffffffffffffffffffffffffff19166020820180517bffffffffffffffffffffffffffffffffffffffffffffffffffffffff83818316178352505050506040516102269190610712565b60006040518083038185875af1925050503d8060008114610263576040519150601f19603f3d011682016040523d82523d6000602084013e610268565b606091505b50509050806102ac576040517f08c379a00000000000000000000000000000000000000000000000000000000081526004016102a39061079b565b60405180910390fd5b83600560006101000a81548173ffffffffffffffffffffffffffffffffffffffff021916908373ffffffffffffffffffffffffffffffffffffffff160217905550826001819055505050505050565b6000600560009054906101000a900473ffffffffffffffffffffffffffffffffffffffff16905090565b6000600360009054906101000a900473ffffffffffffffffffffffffffffffffffffffff1673ffffffffffffffffffffffffffffffffffffffff1660008054846040516024016103769291906107bb565b6040516020818303038152906040527f7bf4d415000000000000000000000000000000000000000000000000000000007bffffffffffffffffffffffffffffffffffffffffffffffffffffffff19166020820180517bffffffffffffffffffffffffffffffffffffffffffffffffffffffff83818316178352505050506040516104009190610712565b60006040518083038185875af1925050503d806000811461043d576040519150601f19603f3d011682016040523d82523d6000602084013e610442565b606091505b505090505050565b600080fd5b6000819050919050565b6104628161044f565b811461046d57600080fd5b50565b60008135905061047f81610459565b92915050565b600073ffffffffffffffffffffffffffffffffffffffff82169050919050565b60006104b082610485565b9050919050565b6104c0816104a5565b81146104cb57600080fd5b50565b6000813590506104dd816104b7565b92915050565b600080600080608085870312156104fd576104fc61044a565b5b600061050b87828801610470565b945050602061051c878288016104ce565b935050604061052d87828801610470565b925050606061053e87828801610470565b91505092959194509250565b610553816104a5565b82525050565b600060208201905061056e600083018461054a565b92915050565b60006020828403121561058a5761058961044a565b5b600061059884828501610470565b91505092915050565b600082825260208201905092915050565b7f596f7520646f206e6f7420686176652061636365737320746f2065646974207460008201527f686973206974656d2e0000000000000000000000000000000000000000000000602082015250565b600061060e6029836105a1565b9150610619826105b2565b604082019050919050565b6000602082019050818103600083015261063d81610601565b9050919050565b61064d8161044f565b82525050565b60006080820190506106686000830187610644565b610675602083018661054a565b6106826040830185610644565b61068f6060830184610644565b95945050505050565b600081519050919050565b600081905092915050565b60005b838110156106cc5780820151818401526020810190506106b1565b838111156106db576000848401525b50505050565b60006106ec82610698565b6106f681856106a3565b93506107068185602086016106ae565b80840191505092915050565b600061071e82846106e1565b915081905092915050565b7f43616c6c20776173206e6f74207375636365737366756c2e20506c656173652060008201527f74727920616761696e2e00000000000000000000000000000000000000000000602082015250565b6000610785602a836105a1565b915061079082610729565b604082019050919050565b600060208201905081810360008301526107b481610778565b9050919050565b60006040820190506107d06000830185610644565b6107dd6020830184610644565b939250505056fea26469706673582212202d7047e2b8e1df7cc3a0a1491710d857df26d13943bac98789f915a5914f7ac064736f6c634300080a0033a2646970667358221220079755969c791c74e3c82bd916f63a853c1f88cd5af9350b0bc7947e6c575c9764736f6c634300080a0033",
  "immutableReferences": {},
  "source": "pragma solidity ^0.8.7;\r\nimport './Ownable.sol';\r\nimport './Item.sol';\r\n\r\ncontract Store is Ownable {\r\n    uint index;\r\n    enum SupplyStatus{ Purchased, InTransit, Delivered }\r\n\r\n    event ItemEvent(uint _itemIndex, address _itemAddress);\r\n    event PaymentEvent(uint _status);\r\n\r\n    struct S_Payment {\r\n        address _item;\r\n        address _buyer;\r\n        uint _value;\r\n        uint _quantity;\r\n        uint _timePurchased;\r\n        Store.SupplyStatus _status;\r\n    }\r\n\r\n    struct S_Item {\r\n        string _identifier;\r\n        address _itemOwner;\r\n        uint _price;\r\n        uint _quantity;\r\n        uint _timeCreated;\r\n        uint _purchases;\r\n        Item _item;\r\n        mapping(uint => S_Payment) _payments;\r\n    }\r\n\r\n    mapping(uint => S_Item) public items;\r\n\r\n    function createItem(string memory _name, uint _price, uint _quantity) public {\r\n        Item item = new Item(_name, _price, msg.sender, block.timestamp, index, address(this));\r\n\r\n        items[index]._identifier = _name;\r\n        items[index]._itemOwner = msg.sender;\r\n        items[index]._price = _price;\r\n        items[index]._quantity = _quantity;\r\n        items[index]._timeCreated = block.timestamp;\r\n        items[index]._item = item;\r\n\r\n        emit ItemEvent(index, address(item));\r\n        index++;\r\n    }\r\n\r\n    function triggerPayment(uint _itemIndex, uint _quantity) public payable {\r\n        require(msg.sender == address(items[_itemIndex]._item), \"Function not called from Item Contract.\");\r\n        require(_quantity >= 1, \"Need 1 or more to purchase.\");\r\n        require(_quantity <= items[_itemIndex]._quantity, \"Not enough in stock.\");\r\n        require(msg.value == items[_itemIndex]._price * _quantity, \"Must pay specified price.\"); \r\n\r\n        uint purchaseIndex = items[_itemIndex]._purchases;\r\n        uint comission = msg.value * 5 / 100;\r\n        uint itemOwnerPay = msg.value - comission;\r\n        address itemOwner = items[_itemIndex]._itemOwner;\r\n\r\n        (bool itemOwnerSuccess, ) = itemOwner.call{ value: itemOwnerPay }('');\r\n        require(itemOwnerSuccess, \"Payment did not send successfully. Please try again.\");\r\n        (bool ownerSuccess, ) = owner.call{ value: comission }('');\r\n        require(ownerSuccess, \"Payment did not send successfully. Please try again.\");\r\n\r\n        items[_itemIndex]._payments[purchaseIndex]._item = address(items[_itemIndex]._item);\r\n        items[_itemIndex]._payments[purchaseIndex]._buyer = msg.sender;\r\n        items[_itemIndex]._payments[purchaseIndex]._value = msg.value;\r\n        items[_itemIndex]._payments[purchaseIndex]._quantity = _quantity;\r\n        items[_itemIndex]._payments[purchaseIndex]._timePurchased = block.timestamp;\r\n        items[_itemIndex]._payments[purchaseIndex]._status = SupplyStatus.Purchased;\r\n\r\n        items[_itemIndex]._purchases++;\r\n        items[_itemIndex]._quantity -= _quantity;\r\n    }\r\n\r\n    function editItem(uint _index, address _itemOwner, uint _price, uint _quantity) public {\r\n        require(msg.sender == address(items[_index]._item), \"Funciton not called from Item Contract.\");\r\n        items[_index]._itemOwner = _itemOwner;\r\n        items[_index]._price = _price;\r\n        items[_index]._quantity = _quantity;\r\n    }\r\n\r\n    function returnOwner() public view returns(address) {\r\n        return owner;\r\n    }\r\n}",
  "sourcePath": "C:\\Users\\dernl\\Documents\\Projects\\Solidity\\learning\\testProject\\react\\contracts\\Store.sol",
  "compiler": {
    "name": "solc",
    "version": "0.8.10+commit.fc410830.Emscripten.clang"
  },
  "schemaVersion": "3.4.3",
  "updatedAt": "2021-11-13T23:41:38.336Z",
  "networkType": "ethereum",
  "devdoc": {
    "kind": "dev",
    "methods": {},
    "version": 1
  },
  "userdoc": {
    "kind": "user",
    "methods": {},
    "version": 1
  }
}