{
  "contractName": "Store",
  "abi": [
    {
      "anonymous": false,
      "inputs": [
        {
          "indexed": false,
          "internalType": "uint256",
          "name": "_itemIndex",
          "type": "uint256"
        },
        {
          "indexed": false,
          "internalType": "address",
          "name": "_itemAddress",
          "type": "address"
        }
      ],
      "name": "ItemEvent",
      "type": "event"
    },
    {
      "anonymous": false,
      "inputs": [
        {
          "indexed": false,
          "internalType": "uint256",
          "name": "_status",
          "type": "uint256"
        }
      ],
      "name": "PaymentEvent",
      "type": "event"
    },
    {
      "inputs": [
        {
          "internalType": "uint256",
          "name": "",
          "type": "uint256"
        }
      ],
      "name": "items",
      "outputs": [
        {
          "internalType": "string",
          "name": "_identifier",
          "type": "string"
        },
        {
          "internalType": "address",
          "name": "_itemOwner",
          "type": "address"
        },
        {
          "internalType": "uint256",
          "name": "_price",
          "type": "uint256"
        },
        {
          "internalType": "uint256",
          "name": "_quantity",
          "type": "uint256"
        },
        {
          "internalType": "uint256",
          "name": "_timeCreated",
          "type": "uint256"
        },
        {
          "internalType": "uint256",
          "name": "_purchases",
          "type": "uint256"
        },
        {
          "internalType": "contract Item",
          "name": "_item",
          "type": "address"
        }
      ],
      "stateMutability": "view",
      "type": "function",
      "constant": true
    },
    {
      "inputs": [
        {
          "internalType": "address",
          "name": "",
          "type": "address"
        }
      ],
      "name": "profiles",
      "outputs": [
        {
          "internalType": "uint256",
          "name": "_itemsOwned",
          "type": "uint256"
        }
      ],
      "stateMutability": "view",
      "type": "function",
      "constant": true
    },
    {
      "inputs": [
        {
          "internalType": "string",
          "name": "_name",
          "type": "string"
        },
        {
          "internalType": "uint256",
          "name": "_price",
          "type": "uint256"
        },
        {
          "internalType": "uint256",
          "name": "_quantity",
          "type": "uint256"
        }
      ],
      "name": "createItem",
      "outputs": [],
      "stateMutability": "nonpayable",
      "type": "function"
    },
    {
      "inputs": [
        {
          "internalType": "uint256",
          "name": "_itemIndex",
          "type": "uint256"
        },
        {
          "internalType": "uint256",
          "name": "_quantity",
          "type": "uint256"
        }
      ],
      "name": "triggerPayment",
      "outputs": [],
      "stateMutability": "payable",
      "type": "function",
      "payable": true
    },
    {
      "inputs": [
        {
          "internalType": "uint256",
          "name": "_index",
          "type": "uint256"
        },
        {
          "internalType": "address",
          "name": "_itemOwner",
          "type": "address"
        },
        {
          "internalType": "uint256",
          "name": "_price",
          "type": "uint256"
        },
        {
          "internalType": "uint256",
          "name": "_quantity",
          "type": "uint256"
        }
      ],
      "name": "editItem",
      "outputs": [],
      "stateMutability": "nonpayable",
      "type": "function"
    },
    {
      "inputs": [],
      "name": "returnOwner",
      "outputs": [
        {
          "internalType": "address",
          "name": "",
          "type": "address"
        }
      ],
      "stateMutability": "view",
      "type": "function",
      "constant": true
    },
    {
      "inputs": [
        {
          "internalType": "address",
          "name": "_itemOwner",
          "type": "address"
        },
        {
          "internalType": "uint256",
          "name": "_index",
          "type": "uint256"
        }
      ],
      "name": "returnItemsOwnedByAddress",
      "outputs": [
        {
          "internalType": "address",
          "name": "",
          "type": "address"
        }
      ],
      "stateMutability": "view",
      "type": "function",
      "constant": true
    },
    {
      "inputs": [
        {
          "internalType": "address",
          "name": "_itemOwner",
          "type": "address"
        }
      ],
      "name": "returnItemsOwnedTotal",
      "outputs": [
        {
          "internalType": "uint256",
          "name": "",
          "type": "uint256"
        }
      ],
      "stateMutability": "view",
      "type": "function",
      "constant": true
    }
  ],
  "bytecode": "0x608060405234801561001057600080fd5b50336000806101000a81548173ffffffffffffffffffffffffffffffffffffffff021916908373ffffffffffffffffffffffffffffffffffffffff160217905550612d24806100606000396000f3fe608060405260043610620000865760003560e01c80639977b50d11620000555780639977b50d1462000137578063bbe15627146200017b578063bd441a0714620001bf578063bfb231d214620002035762000086565b8063108155bc146200008b57806341bfe12e14620000b95780637bf4d41514620000e757806394a927fe1462000107575b600080fd5b3480156200009857600080fd5b50620000b76004803603810190620000b1919062001135565b6200024d565b005b348015620000c657600080fd5b50620000e56004803603810190620000df919062001215565b62000557565b005b620001056004803603810190620000ff919062001287565b6200068f565b005b3480156200011457600080fd5b506200011f62000ca3565b6040516200012e9190620012df565b60405180910390f35b3480156200014457600080fd5b506200016360048036038101906200015d9190620012fc565b62000ccc565b6040516200017291906200133f565b60405180910390f35b3480156200018857600080fd5b50620001a76004803603810190620001a19190620012fc565b62000d18565b604051620001b691906200133f565b60405180910390f35b348015620001cc57600080fd5b50620001eb6004803603810190620001e591906200135c565b62000d36565b604051620001fa9190620012df565b60405180910390f35b3480156200021057600080fd5b506200022f6004803603810190620002299190620013a3565b62000db4565b604051620002449796959493929190620014d3565b60405180910390f35b6000838333426001543087604051620002669062000ec6565b62000278979695949392919062001557565b604051809103906000f08015801562000295573d6000803e3d6000fd5b509050836002600060015481526020019081526020016000206000019080519060200190620002c692919062000ed4565b503360026000600154815260200190815260200160002060010160006101000a81548173ffffffffffffffffffffffffffffffffffffffff021916908373ffffffffffffffffffffffffffffffffffffffff1602179055508260026000600154815260200190815260200160002060020181905550816002600060015481526020019081526020016000206003018190555042600260006001548152602001908152602001600020600401819055508060026000600154815260200190815260200160002060060160006101000a81548173ffffffffffffffffffffffffffffffffffffffff021916908373ffffffffffffffffffffffffffffffffffffffff16021790555080600360003373ffffffffffffffffffffffffffffffffffffffff1673ffffffffffffffffffffffffffffffffffffffff1681526020019081526020016000206001016000600360003373ffffffffffffffffffffffffffffffffffffffff1673ffffffffffffffffffffffffffffffffffffffff16815260200190815260200160002060000154815260200190815260200160002060006101000a81548173ffffffffffffffffffffffffffffffffffffffff021916908373ffffffffffffffffffffffffffffffffffffffff160217905550600360003373ffffffffffffffffffffffffffffffffffffffff1673ffffffffffffffffffffffffffffffffffffffff1681526020019081526020016000206000016000815480929190620004f5906200160a565b91905055507fca5585368d85299533de15b811903fb3e0bab33615d34e80673fa2aaca328f6a600154826040516200052f92919062001658565b60405180910390a1600160008154809291906200054c906200160a565b919050555050505050565b6002600085815260200190815260200160002060060160009054906101000a900473ffffffffffffffffffffffffffffffffffffffff1673ffffffffffffffffffffffffffffffffffffffff163373ffffffffffffffffffffffffffffffffffffffff1614620005fe576040517f08c379a0000000000000000000000000000000000000000000000000000000008152600401620005f590620016fb565b60405180910390fd5b826002600086815260200190815260200160002060010160006101000a81548173ffffffffffffffffffffffffffffffffffffffff021916908373ffffffffffffffffffffffffffffffffffffffff16021790555081600260008681526020019081526020016000206002018190555080600260008681526020019081526020016000206003018190555050505050565b6002600083815260200190815260200160002060060160009054906101000a900473ffffffffffffffffffffffffffffffffffffffff1673ffffffffffffffffffffffffffffffffffffffff163373ffffffffffffffffffffffffffffffffffffffff161462000736576040517f08c379a00000000000000000000000000000000000000000000000000000000081526004016200072d9062001793565b60405180910390fd5b60018110156200077d576040517f08c379a0000000000000000000000000000000000000000000000000000000008152600401620007749062001805565b60405180910390fd5b6002600083815260200190815260200160002060030154811115620007d9576040517f08c379a0000000000000000000000000000000000000000000000000000000008152600401620007d09062001877565b60405180910390fd5b806002600084815260200190815260200160002060020154620007fd919062001899565b341462000841576040517f08c379a000000000000000000000000000000000000000000000000000000000815260040162000838906200194a565b60405180910390fd5b600060026000848152602001908152602001600020600501549050600060646005346200086f919062001899565b6200087b91906200199b565b9050600081346200088d9190620019d3565b905060006002600087815260200190815260200160002060010160009054906101000a900473ffffffffffffffffffffffffffffffffffffffff16905060008173ffffffffffffffffffffffffffffffffffffffff1683604051620008f29062001a43565b60006040518083038185875af1925050503d806000811462000931576040519150601f19603f3d011682016040523d82523d6000602084013e62000936565b606091505b50509050806200097d576040517f08c379a0000000000000000000000000000000000000000000000000000000008152600401620009749062001ad0565b60405180910390fd5b60008060009054906101000a900473ffffffffffffffffffffffffffffffffffffffff1673ffffffffffffffffffffffffffffffffffffffff1685604051620009c69062001a43565b60006040518083038185875af1925050503d806000811462000a05576040519150601f19603f3d011682016040523d82523d6000602084013e62000a0a565b606091505b505090508062000a51576040517f08c379a000000000000000000000000000000000000000000000000000000000815260040162000a489062001ad0565b60405180910390fd5b6002600089815260200190815260200160002060060160009054906101000a900473ffffffffffffffffffffffffffffffffffffffff16600260008a8152602001908152602001600020600701600088815260200190815260200160002060000160006101000a81548173ffffffffffffffffffffffffffffffffffffffff021916908373ffffffffffffffffffffffffffffffffffffffff16021790555033600260008a8152602001908152602001600020600701600088815260200190815260200160002060010160006101000a81548173ffffffffffffffffffffffffffffffffffffffff021916908373ffffffffffffffffffffffffffffffffffffffff16021790555034600260008a815260200190815260200160002060070160008881526020019081526020016000206002018190555086600260008a815260200190815260200160002060070160008881526020019081526020016000206003018190555042600260008a81526020019081526020016000206007016000888152602001908152602001600020600401819055506000600260008a8152602001908152602001600020600701600088815260200190815260200160002060050160006101000a81548160ff0219169083600281111562000c375762000c3662001af2565b5b021790555060026000898152602001908152602001600020600501600081548092919062000c65906200160a565b919050555086600260008a8152602001908152602001600020600301600082825462000c929190620019d3565b925050819055505050505050505050565b60008060009054906101000a900473ffffffffffffffffffffffffffffffffffffffff16905090565b6000600360008373ffffffffffffffffffffffffffffffffffffffff1673ffffffffffffffffffffffffffffffffffffffff168152602001908152602001600020600001549050919050565b60036020528060005260406000206000915090508060000154905081565b6000600360008473ffffffffffffffffffffffffffffffffffffffff1673ffffffffffffffffffffffffffffffffffffffff168152602001908152602001600020600101600083815260200190815260200160002060009054906101000a900473ffffffffffffffffffffffffffffffffffffffff16905092915050565b600260205280600052604060002060009150905080600001805462000dd99062001b50565b80601f016020809104026020016040519081016040528092919081815260200182805462000e079062001b50565b801562000e585780601f1062000e2c5761010080835404028352916020019162000e58565b820191906000526020600020905b81548152906001019060200180831162000e3a57829003601f168201915b5050505050908060010160009054906101000a900473ffffffffffffffffffffffffffffffffffffffff16908060020154908060030154908060040154908060050154908060060160009054906101000a900473ffffffffffffffffffffffffffffffffffffffff16905087565b6111688062001b8783390190565b82805462000ee29062001b50565b90600052602060002090601f01602090048101928262000f06576000855562000f52565b82601f1062000f2157805160ff191683800117855562000f52565b8280016001018555821562000f52579182015b8281111562000f5157825182559160200191906001019062000f34565b5b50905062000f61919062000f65565b5090565b5b8082111562000f8057600081600090555060010162000f66565b5090565b6000604051905090565b600080fd5b600080fd5b600080fd5b600080fd5b6000601f19601f8301169050919050565b7f4e487b7100000000000000000000000000000000000000000000000000000000600052604160045260246000fd5b62000fed8262000fa2565b810181811067ffffffffffffffff821117156200100f576200100e62000fb3565b5b80604052505050565b60006200102462000f84565b905062001032828262000fe2565b919050565b600067ffffffffffffffff82111562001055576200105462000fb3565b5b620010608262000fa2565b9050602081019050919050565b82818337600083830152505050565b6000620010936200108d8462001037565b62001018565b905082815260208101848484011115620010b257620010b162000f9d565b5b620010bf8482856200106d565b509392505050565b600082601f830112620010df57620010de62000f98565b5b8135620010f18482602086016200107c565b91505092915050565b6000819050919050565b6200110f81620010fa565b81146200111b57600080fd5b50565b6000813590506200112f8162001104565b92915050565b60008060006060848603121562001151576200115062000f8e565b5b600084013567ffffffffffffffff81111562001172576200117162000f93565b5b6200118086828701620010c7565b935050602062001193868287016200111e565b9250506040620011a6868287016200111e565b9150509250925092565b600073ffffffffffffffffffffffffffffffffffffffff82169050919050565b6000620011dd82620011b0565b9050919050565b620011ef81620011d0565b8114620011fb57600080fd5b50565b6000813590506200120f81620011e4565b92915050565b6000806000806080858703121562001232576200123162000f8e565b5b600062001242878288016200111e565b94505060206200125587828801620011fe565b935050604062001268878288016200111e565b92505060606200127b878288016200111e565b91505092959194509250565b60008060408385031215620012a157620012a062000f8e565b5b6000620012b1858286016200111e565b9250506020620012c4858286016200111e565b9150509250929050565b620012d981620011d0565b82525050565b6000602082019050620012f66000830184620012ce565b92915050565b60006020828403121562001315576200131462000f8e565b5b60006200132584828501620011fe565b91505092915050565b6200133981620010fa565b82525050565b60006020820190506200135660008301846200132e565b92915050565b6000806040838503121562001376576200137562000f8e565b5b60006200138685828601620011fe565b925050602062001399858286016200111e565b9150509250929050565b600060208284031215620013bc57620013bb62000f8e565b5b6000620013cc848285016200111e565b91505092915050565b600081519050919050565b600082825260208201905092915050565b60005b8381101562001411578082015181840152602081019050620013f4565b8381111562001421576000848401525b50505050565b60006200143482620013d5565b620014408185620013e0565b935062001452818560208601620013f1565b6200145d8162000fa2565b840191505092915050565b6000819050919050565b6000620014936200148d6200148784620011b0565b62001468565b620011b0565b9050919050565b6000620014a78262001472565b9050919050565b6000620014bb826200149a565b9050919050565b620014cd81620014ae565b82525050565b600060e0820190508181036000830152620014ef818a62001427565b9050620015006020830189620012ce565b6200150f60408301886200132e565b6200151e60608301876200132e565b6200152d60808301866200132e565b6200153c60a08301856200132e565b6200154b60c0830184620014c2565b98975050505050505050565b600060e082019050818103600083015262001573818a62001427565b90506200158460208301896200132e565b620015936040830188620012ce565b620015a260608301876200132e565b620015b160808301866200132e565b620015c060a0830185620012ce565b620015cf60c08301846200132e565b98975050505050505050565b7f4e487b7100000000000000000000000000000000000000000000000000000000600052601160045260246000fd5b60006200161782620010fa565b91507fffffffffffffffffffffffffffffffffffffffffffffffffffffffffffffffff8214156200164d576200164c620015db565b5b600182019050919050565b60006040820190506200166f60008301856200132e565b6200167e6020830184620012ce565b9392505050565b7f46756e6369746f6e206e6f742063616c6c65642066726f6d204974656d20436f60008201527f6e74726163742e00000000000000000000000000000000000000000000000000602082015250565b6000620016e3602783620013e0565b9150620016f08262001685565b604082019050919050565b600060208201905081810360008301526200171681620016d4565b9050919050565b7f46756e6374696f6e206e6f742063616c6c65642066726f6d204974656d20436f60008201527f6e74726163742e00000000000000000000000000000000000000000000000000602082015250565b60006200177b602783620013e0565b915062001788826200171d565b604082019050919050565b60006020820190508181036000830152620017ae816200176c565b9050919050565b7f4e6565642031206f72206d6f726520746f2070757263686173652e0000000000600082015250565b6000620017ed601b83620013e0565b9150620017fa82620017b5565b602082019050919050565b600060208201905081810360008301526200182081620017de565b9050919050565b7f4e6f7420656e6f75676820696e2073746f636b2e000000000000000000000000600082015250565b60006200185f601483620013e0565b91506200186c8262001827565b602082019050919050565b60006020820190508181036000830152620018928162001850565b9050919050565b6000620018a682620010fa565b9150620018b383620010fa565b9250817fffffffffffffffffffffffffffffffffffffffffffffffffffffffffffffffff0483118215151615620018ef57620018ee620015db565b5b828202905092915050565b7f4d75737420706179207370656369666965642070726963652e00000000000000600082015250565b600062001932601983620013e0565b91506200193f82620018fa565b602082019050919050565b60006020820190508181036000830152620019658162001923565b9050919050565b7f4e487b7100000000000000000000000000000000000000000000000000000000600052601260045260246000fd5b6000620019a882620010fa565b9150620019b583620010fa565b925082620019c857620019c76200196c565b5b828204905092915050565b6000620019e082620010fa565b9150620019ed83620010fa565b92508282101562001a035762001a02620015db565b5b828203905092915050565b600081905092915050565b50565b600062001a2b60008362001a0e565b915062001a388262001a19565b600082019050919050565b600062001a508262001a1c565b9150819050919050565b7f5061796d656e7420646964206e6f742073656e64207375636365737366756c6c60008201527f792e20506c656173652074727920616761696e2e000000000000000000000000602082015250565b600062001ab8603483620013e0565b915062001ac58262001a5a565b604082019050919050565b6000602082019050818103600083015262001aeb8162001aa9565b9050919050565b7f4e487b7100000000000000000000000000000000000000000000000000000000600052602160045260246000fd5b7f4e487b7100000000000000000000000000000000000000000000000000000000600052602260045260246000fd5b6000600282049050600182168062001b6957607f821691505b6020821081141562001b805762001b7f62001b21565b5b5091905056fe60806040523480156200001157600080fd5b5060405162001168380380620011688339818101604052810190620000379190620003e8565b86600290805190602001906200004f929190620000fb565b50856001819055508260008190555081600460006101000a81548173ffffffffffffffffffffffffffffffffffffffff021916908373ffffffffffffffffffffffffffffffffffffffff1602179055508060038190555084600660006101000a81548173ffffffffffffffffffffffffffffffffffffffff021916908373ffffffffffffffffffffffffffffffffffffffff16021790555083600581905550505050505050506200051f565b8280546200010990620004e9565b90600052602060002090601f0160209004810192826200012d576000855562000179565b82601f106200014857805160ff191683800117855562000179565b8280016001018555821562000179579182015b82811115620001785782518255916020019190600101906200015b565b5b5090506200018891906200018c565b5090565b5b80821115620001a75760008160009055506001016200018d565b5090565b6000604051905090565b600080fd5b600080fd5b600080fd5b600080fd5b6000601f19601f8301169050919050565b7f4e487b7100000000000000000000000000000000000000000000000000000000600052604160045260246000fd5b6200021482620001c9565b810181811067ffffffffffffffff82111715620002365762000235620001da565b5b80604052505050565b60006200024b620001ab565b905062000259828262000209565b919050565b600067ffffffffffffffff8211156200027c576200027b620001da565b5b6200028782620001c9565b9050602081019050919050565b60005b83811015620002b457808201518184015260208101905062000297565b83811115620002c4576000848401525b50505050565b6000620002e1620002db846200025e565b6200023f565b9050828152602081018484840111156200030057620002ff620001c4565b5b6200030d84828562000294565b509392505050565b600082601f8301126200032d576200032c620001bf565b5b81516200033f848260208601620002ca565b91505092915050565b6000819050919050565b6200035d8162000348565b81146200036957600080fd5b50565b6000815190506200037d8162000352565b92915050565b600073ffffffffffffffffffffffffffffffffffffffff82169050919050565b6000620003b08262000383565b9050919050565b620003c281620003a3565b8114620003ce57600080fd5b50565b600081519050620003e281620003b7565b92915050565b600080600080600080600060e0888a0312156200040a5762000409620001b5565b5b600088015167ffffffffffffffff8111156200042b576200042a620001ba565b5b620004398a828b0162000315565b97505060206200044c8a828b016200036c565b96505060406200045f8a828b01620003d1565b9550506060620004728a828b016200036c565b9450506080620004858a828b016200036c565b93505060a0620004988a828b01620003d1565b92505060c0620004ab8a828b016200036c565b91505092959891949750929550565b7f4e487b7100000000000000000000000000000000000000000000000000000000600052602260045260246000fd5b600060028204905060018216806200050257607f821691505b60208210811415620005195762000518620004ba565b5b50919050565b610c39806200052f6000396000f3fe6080604052600436106100595760003560e01c806310cb4b1a1461006957806341bfe12e146100945780635ea5cabe146100bd5780639a937afb146100e8578063c290d69114610113578063ec52aa721461012f5761005a565b5b34801561006657600080fd5b50005b34801561007557600080fd5b5061007e61015a565b60405161008b9190610654565b60405180910390f35b3480156100a057600080fd5b506100bb60048036038101906100b691906106fe565b610164565b005b3480156100c957600080fd5b506100d26103ae565b6040516100df91906107fe565b60405180910390f35b3480156100f457600080fd5b506100fd610440565b60405161010a919061082f565b60405180910390f35b61012d6004803603810190610128919061084a565b61046a565b005b34801561013b57600080fd5b50610144610631565b6040516101519190610654565b60405180910390f35b6000600154905090565b600660009054906101000a900473ffffffffffffffffffffffffffffffffffffffff1673ffffffffffffffffffffffffffffffffffffffff163373ffffffffffffffffffffffffffffffffffffffff16146101f4576040517f08c379a00000000000000000000000000000000000000000000000000000000081526004016101eb906108e9565b60405180910390fd5b6000600460009054906101000a900473ffffffffffffffffffffffffffffffffffffffff1673ffffffffffffffffffffffffffffffffffffffff166000868686866040516024016102489493929190610909565b6040516020818303038152906040527f41bfe12e000000000000000000000000000000000000000000000000000000007bffffffffffffffffffffffffffffffffffffffffffffffffffffffff19166020820180517bffffffffffffffffffffffffffffffffffffffffffffffffffffffff83818316178352505050506040516102d29190610995565b60006040518083038185875af1925050503d806000811461030f576040519150601f19603f3d011682016040523d82523d6000602084013e610314565b606091505b5050905080610358576040517f08c379a000000000000000000000000000000000000000000000000000000000815260040161034f90610a1e565b60405180910390fd5b83600660006101000a81548173ffffffffffffffffffffffffffffffffffffffff021916908373ffffffffffffffffffffffffffffffffffffffff16021790555082600181905550816003819055505050505050565b6060600280546103bd90610a6d565b80601f01602080910402602001604051908101604052809291908181526020018280546103e990610a6d565b80156104365780601f1061040b57610100808354040283529160200191610436565b820191906000526020600020905b81548152906001019060200180831161041957829003601f168201915b5050505050905090565b6000600660009054906101000a900473ffffffffffffffffffffffffffffffffffffffff16905090565b60018110156104ae576040517f08c379a00000000000000000000000000000000000000000000000000000000081526004016104a590610aeb565b60405180910390fd5b6003548111156104f3576040517f08c379a00000000000000000000000000000000000000000000000000000000081526004016104ea90610b57565b60405180910390fd5b6000600460009054906101000a900473ffffffffffffffffffffffffffffffffffffffff1673ffffffffffffffffffffffffffffffffffffffff163460005484604051602401610544929190610b77565b6040516020818303038152906040527f7bf4d415000000000000000000000000000000000000000000000000000000007bffffffffffffffffffffffffffffffffffffffffffffffffffffffff19166020820180517bffffffffffffffffffffffffffffffffffffffffffffffffffffffff83818316178352505050506040516105ce9190610995565b60006040518083038185875af1925050503d806000811461060b576040519150601f19603f3d011682016040523d82523d6000602084013e610610565b606091505b5050905081600360008282546106269190610bcf565b925050819055505050565b6000600354905090565b6000819050919050565b61064e8161063b565b82525050565b60006020820190506106696000830184610645565b92915050565b600080fd5b61067d8161063b565b811461068857600080fd5b50565b60008135905061069a81610674565b92915050565b600073ffffffffffffffffffffffffffffffffffffffff82169050919050565b60006106cb826106a0565b9050919050565b6106db816106c0565b81146106e657600080fd5b50565b6000813590506106f8816106d2565b92915050565b600080600080608085870312156107185761071761066f565b5b60006107268782880161068b565b9450506020610737878288016106e9565b93505060406107488782880161068b565b92505060606107598782880161068b565b91505092959194509250565b600081519050919050565b600082825260208201905092915050565b60005b8381101561079f578082015181840152602081019050610784565b838111156107ae576000848401525b50505050565b6000601f19601f8301169050919050565b60006107d082610765565b6107da8185610770565b93506107ea818560208601610781565b6107f3816107b4565b840191505092915050565b6000602082019050818103600083015261081881846107c5565b905092915050565b610829816106c0565b82525050565b60006020820190506108446000830184610820565b92915050565b6000602082840312156108605761085f61066f565b5b600061086e8482850161068b565b91505092915050565b7f596f7520646f206e6f7420686176652061636365737320746f2065646974207460008201527f686973206974656d2e0000000000000000000000000000000000000000000000602082015250565b60006108d3602983610770565b91506108de82610877565b604082019050919050565b60006020820190508181036000830152610902816108c6565b9050919050565b600060808201905061091e6000830187610645565b61092b6020830186610820565b6109386040830185610645565b6109456060830184610645565b95945050505050565b600081519050919050565b600081905092915050565b600061096f8261094e565b6109798185610959565b9350610989818560208601610781565b80840191505092915050565b60006109a18284610964565b915081905092915050565b7f43616c6c20776173206e6f74207375636365737366756c2e20506c656173652060008201527f74727920616761696e2e00000000000000000000000000000000000000000000602082015250565b6000610a08602a83610770565b9150610a13826109ac565b604082019050919050565b60006020820190508181036000830152610a37816109fb565b9050919050565b7f4e487b7100000000000000000000000000000000000000000000000000000000600052602260045260246000fd5b60006002820490506001821680610a8557607f821691505b60208210811415610a9957610a98610a3e565b5b50919050565b7f4e6565642031206f72206d6f726520746f2070757263686173652e0000000000600082015250565b6000610ad5601b83610770565b9150610ae082610a9f565b602082019050919050565b60006020820190508181036000830152610b0481610ac8565b9050919050565b7f4e6f7420656e6f75676820696e2073746f636b2e000000000000000000000000600082015250565b6000610b41601483610770565b9150610b4c82610b0b565b602082019050919050565b60006020820190508181036000830152610b7081610b34565b9050919050565b6000604082019050610b8c6000830185610645565b610b996020830184610645565b9392505050565b7f4e487b7100000000000000000000000000000000000000000000000000000000600052601160045260246000fd5b6000610bda8261063b565b9150610be58361063b565b925082821015610bf857610bf7610ba0565b5b82820390509291505056fea2646970667358221220062dbacd7245e2148b31e1b6b190b7dbe57abd5eb360dffaffe2fb07a54f658a64736f6c634300080a0033a26469706673582212204eee6ff3326a430dd0fb3056b6de4016f477b8bf6d1f39450cd2ce9a43d8eb4364736f6c634300080a0033",
  "immutableReferences": {},
  "source": "pragma solidity ^0.8.7;\r\nimport './Ownable.sol';\r\nimport './Item.sol';\r\n\r\ncontract Store is Ownable {\r\n    uint index;\r\n    enum SupplyStatus{ Purchased, InTransit, Delivered }\r\n\r\n    event ItemEvent(uint _itemIndex, address _itemAddress);\r\n    event PaymentEvent(uint _status);\r\n\r\n    struct S_Payment {\r\n        address _item;\r\n        address _buyer;\r\n        uint _value;\r\n        uint _quantity;\r\n        uint _timePurchased;\r\n        Store.SupplyStatus _status;\r\n    }\r\n\r\n    struct S_Item {\r\n        string _identifier;\r\n        address _itemOwner;\r\n        uint _price;\r\n        uint _quantity;\r\n        uint _timeCreated;\r\n        uint _purchases;\r\n        Item _item;\r\n        mapping(uint => S_Payment) _payments;\r\n    }\r\n\r\n    struct S_Profile {\r\n        uint _itemsOwned;\r\n        mapping(uint => address) _items;\r\n    }\r\n\r\n    mapping(uint => S_Item) public items;\r\n    mapping(address => S_Profile) public profiles;\r\n\r\n    function createItem(string memory _name, uint _price, uint _quantity) public {\r\n        Item item = new Item(_name, _price, msg.sender, block.timestamp, index, address(this), _quantity);\r\n\r\n        items[index]._identifier = _name;\r\n        items[index]._itemOwner = msg.sender;\r\n        items[index]._price = _price;\r\n        items[index]._quantity = _quantity;\r\n        items[index]._timeCreated = block.timestamp;\r\n        items[index]._item = item;\r\n\r\n        profiles[msg.sender]._items[profiles[msg.sender]._itemsOwned] = address(item);\r\n        profiles[msg.sender]._itemsOwned++;\r\n\r\n        emit ItemEvent(index, address(item));\r\n        index++;\r\n    }\r\n\r\n    function triggerPayment(uint _itemIndex, uint _quantity) public payable {\r\n        require(msg.sender == address(items[_itemIndex]._item), \"Function not called from Item Contract.\");\r\n        require(_quantity >= 1, \"Need 1 or more to purchase.\");\r\n        require(_quantity <= items[_itemIndex]._quantity, \"Not enough in stock.\");\r\n        require(msg.value == items[_itemIndex]._price * _quantity, \"Must pay specified price.\"); \r\n\r\n        uint purchaseIndex = items[_itemIndex]._purchases;\r\n        uint comission = msg.value * 5 / 100;\r\n        uint itemOwnerPay = msg.value - comission;\r\n        address itemOwner = items[_itemIndex]._itemOwner;\r\n\r\n        (bool itemOwnerSuccess, ) = itemOwner.call{ value: itemOwnerPay }('');\r\n        require(itemOwnerSuccess, \"Payment did not send successfully. Please try again.\");\r\n        (bool ownerSuccess, ) = owner.call{ value: comission }('');\r\n        require(ownerSuccess, \"Payment did not send successfully. Please try again.\");\r\n\r\n        items[_itemIndex]._payments[purchaseIndex]._item = address(items[_itemIndex]._item);\r\n        items[_itemIndex]._payments[purchaseIndex]._buyer = msg.sender;\r\n        items[_itemIndex]._payments[purchaseIndex]._value = msg.value;\r\n        items[_itemIndex]._payments[purchaseIndex]._quantity = _quantity;\r\n        items[_itemIndex]._payments[purchaseIndex]._timePurchased = block.timestamp;\r\n        items[_itemIndex]._payments[purchaseIndex]._status = SupplyStatus.Purchased;\r\n\r\n        items[_itemIndex]._purchases++;\r\n        items[_itemIndex]._quantity -= _quantity;\r\n    }\r\n\r\n    function editItem(uint _index, address _itemOwner, uint _price, uint _quantity) public {\r\n        require(msg.sender == address(items[_index]._item), \"Funciton not called from Item Contract.\");\r\n        items[_index]._itemOwner = _itemOwner;\r\n        items[_index]._price = _price;\r\n        items[_index]._quantity = _quantity;\r\n    }\r\n\r\n    function returnOwner() public view returns(address) {\r\n        return owner;\r\n    }\r\n\r\n    function returnItemsOwnedByAddress(address _itemOwner, uint _index) public view returns(address) {\r\n        return profiles[_itemOwner]._items[_index];\r\n    }\r\n\r\n    function returnItemsOwnedTotal(address _itemOwner) public view returns(uint) {\r\n        return profiles[_itemOwner]._itemsOwned;\r\n    }\r\n}",
  "sourcePath": "C:\\Users\\dernl\\Documents\\Projects\\Solidity\\learning\\testProject\\react\\contracts\\Store.sol",
  "compiler": {
    "name": "solc",
    "version": "0.8.10+commit.fc410830.Emscripten.clang"
  },
  "schemaVersion": "3.4.3",
  "updatedAt": "2021-11-17T23:15:15.138Z",
  "networkType": "ethereum",
  "devdoc": {
    "kind": "dev",
    "methods": {},
    "version": 1
  },
  "userdoc": {
    "kind": "user",
    "methods": {},
    "version": 1
  }
}