{
  "contractName": "Store",
  "abi": [
    {
      "anonymous": false,
      "inputs": [
        {
          "indexed": false,
          "internalType": "uint256",
          "name": "_itemIndex",
          "type": "uint256"
        },
        {
          "indexed": false,
          "internalType": "address",
          "name": "_itemAddress",
          "type": "address"
        }
      ],
      "name": "ItemEvent",
      "type": "event"
    },
    {
      "anonymous": false,
      "inputs": [
        {
          "indexed": false,
          "internalType": "uint256",
          "name": "_itemIndex",
          "type": "uint256"
        },
        {
          "indexed": false,
          "internalType": "address",
          "name": "_buyerAddr",
          "type": "address"
        },
        {
          "indexed": false,
          "internalType": "uint256",
          "name": "_status",
          "type": "uint256"
        }
      ],
      "name": "PaymentEvent",
      "type": "event"
    },
    {
      "inputs": [
        {
          "internalType": "address",
          "name": "",
          "type": "address"
        }
      ],
      "name": "itemIndex",
      "outputs": [
        {
          "internalType": "uint256",
          "name": "",
          "type": "uint256"
        }
      ],
      "stateMutability": "view",
      "type": "function",
      "constant": true
    },
    {
      "inputs": [
        {
          "internalType": "uint256",
          "name": "",
          "type": "uint256"
        }
      ],
      "name": "items",
      "outputs": [
        {
          "internalType": "string",
          "name": "_identifier",
          "type": "string"
        },
        {
          "internalType": "address",
          "name": "_itemOwner",
          "type": "address"
        },
        {
          "internalType": "uint256",
          "name": "_price",
          "type": "uint256"
        },
        {
          "internalType": "uint256",
          "name": "_quantity",
          "type": "uint256"
        },
        {
          "internalType": "uint256",
          "name": "_timeCreated",
          "type": "uint256"
        },
        {
          "internalType": "uint256",
          "name": "_purchases",
          "type": "uint256"
        },
        {
          "internalType": "contract Item",
          "name": "_item",
          "type": "address"
        }
      ],
      "stateMutability": "view",
      "type": "function",
      "constant": true
    },
    {
      "inputs": [
        {
          "internalType": "address",
          "name": "",
          "type": "address"
        }
      ],
      "name": "profiles",
      "outputs": [
        {
          "internalType": "uint256",
          "name": "_itemsOwned",
          "type": "uint256"
        }
      ],
      "stateMutability": "view",
      "type": "function",
      "constant": true
    },
    {
      "inputs": [
        {
          "internalType": "string",
          "name": "_name",
          "type": "string"
        },
        {
          "internalType": "uint256",
          "name": "_price",
          "type": "uint256"
        },
        {
          "internalType": "uint256",
          "name": "_quantity",
          "type": "uint256"
        }
      ],
      "name": "createItem",
      "outputs": [],
      "stateMutability": "nonpayable",
      "type": "function"
    },
    {
      "inputs": [
        {
          "internalType": "uint256",
          "name": "_itemIndex",
          "type": "uint256"
        },
        {
          "internalType": "uint256",
          "name": "_quantity",
          "type": "uint256"
        },
        {
          "internalType": "address",
          "name": "_buyer",
          "type": "address"
        }
      ],
      "name": "triggerPayment",
      "outputs": [],
      "stateMutability": "payable",
      "type": "function",
      "payable": true
    },
    {
      "inputs": [
        {
          "internalType": "uint256",
          "name": "_index",
          "type": "uint256"
        },
        {
          "internalType": "address",
          "name": "_itemOwner",
          "type": "address"
        },
        {
          "internalType": "uint256",
          "name": "_price",
          "type": "uint256"
        },
        {
          "internalType": "uint256",
          "name": "_quantity",
          "type": "uint256"
        }
      ],
      "name": "editItem",
      "outputs": [],
      "stateMutability": "nonpayable",
      "type": "function"
    },
    {
      "inputs": [],
      "name": "returnOwner",
      "outputs": [
        {
          "internalType": "address",
          "name": "",
          "type": "address"
        }
      ],
      "stateMutability": "view",
      "type": "function",
      "constant": true
    },
    {
      "inputs": [
        {
          "internalType": "address",
          "name": "_itemOwner",
          "type": "address"
        },
        {
          "internalType": "uint256",
          "name": "_index",
          "type": "uint256"
        }
      ],
      "name": "returnItemsOwnedByAddress",
      "outputs": [
        {
          "internalType": "address",
          "name": "",
          "type": "address"
        }
      ],
      "stateMutability": "view",
      "type": "function",
      "constant": true
    },
    {
      "inputs": [
        {
          "internalType": "address",
          "name": "_itemOwner",
          "type": "address"
        }
      ],
      "name": "returnItemsOwnedTotal",
      "outputs": [
        {
          "internalType": "uint256",
          "name": "",
          "type": "uint256"
        }
      ],
      "stateMutability": "view",
      "type": "function",
      "constant": true
    },
    {
      "inputs": [
        {
          "internalType": "address",
          "name": "_item",
          "type": "address"
        }
      ],
      "name": "returnItemIndex",
      "outputs": [
        {
          "internalType": "uint256",
          "name": "",
          "type": "uint256"
        }
      ],
      "stateMutability": "view",
      "type": "function",
      "constant": true
    },
    {
      "inputs": [
        {
          "internalType": "uint256",
          "name": "_index",
          "type": "uint256"
        }
      ],
      "name": "returnItemPurchases",
      "outputs": [
        {
          "internalType": "uint256",
          "name": "",
          "type": "uint256"
        }
      ],
      "stateMutability": "view",
      "type": "function",
      "constant": true
    },
    {
      "inputs": [
        {
          "internalType": "uint256",
          "name": "_itemIndex",
          "type": "uint256"
        },
        {
          "internalType": "uint256",
          "name": "_transactionIndex",
          "type": "uint256"
        }
      ],
      "name": "returnOrderStatus",
      "outputs": [
        {
          "internalType": "uint256",
          "name": "",
          "type": "uint256"
        }
      ],
      "stateMutability": "view",
      "type": "function",
      "constant": true
    },
    {
      "inputs": [
        {
          "internalType": "uint256",
          "name": "_itemIndex",
          "type": "uint256"
        },
        {
          "internalType": "uint256",
          "name": "_transactionIndex",
          "type": "uint256"
        }
      ],
      "name": "returnBuyerAddress",
      "outputs": [
        {
          "internalType": "address",
          "name": "",
          "type": "address"
        }
      ],
      "stateMutability": "view",
      "type": "function",
      "constant": true
    },
    {
      "inputs": [],
      "name": "returnIndex",
      "outputs": [
        {
          "internalType": "uint256",
          "name": "",
          "type": "uint256"
        }
      ],
      "stateMutability": "view",
      "type": "function",
      "constant": true
    },
    {
      "inputs": [
        {
          "internalType": "uint256",
          "name": "_index",
          "type": "uint256"
        }
      ],
      "name": "returnItemAtIndex",
      "outputs": [
        {
          "internalType": "address",
          "name": "",
          "type": "address"
        }
      ],
      "stateMutability": "view",
      "type": "function",
      "constant": true
    },
    {
      "inputs": [
        {
          "internalType": "uint256",
          "name": "_itemIndex",
          "type": "uint256"
        },
        {
          "internalType": "uint256",
          "name": "_purchaseIndex",
          "type": "uint256"
        }
      ],
      "name": "returnPaymentIndex",
      "outputs": [
        {
          "internalType": "uint256",
          "name": "",
          "type": "uint256"
        }
      ],
      "stateMutability": "view",
      "type": "function",
      "constant": true
    }
  ],
  "bytecode": "0x608060405234801561001057600080fd5b50336000806101000a81548173ffffffffffffffffffffffffffffffffffffffff021916908373ffffffffffffffffffffffffffffffffffffffff160217905550613308806100606000396000f3fe6080604052600436106200010a5760003560e01c80639977b50d1162000097578063bd441a071162000061578063bd441a0714620003c7578063bfb231d2146200040b578063c07a41ff1462000455578063d58c72841462000499576200010a565b80639977b50d14620002cb578063998f495e146200030f578063bbe15627146200033f578063bcd4f88f1462000383576200010a565b806341bfe12e11620000d957806341bfe12e146200020957806361c56f53146200023757806374ff68b6146200027b57806394a927fe146200029b576200010a565b8063108155bc146200010f5780631be2457b146200013d578063200ba8dd14620001815780632207eaf914620001c5575b600080fd5b3480156200011c57600080fd5b506200013b600480360381019062000135919062001670565b620004dd565b005b3480156200014a57600080fd5b50620001696004803603810190620001639190620016eb565b6200082d565b60405162000178919062001743565b60405180910390f35b3480156200018e57600080fd5b50620001ad6004803603810190620001a7919062001760565b62000862565b604051620001bc919062001743565b60405180910390f35b348015620001d257600080fd5b50620001f16004803603810190620001eb9190620017f7565b62000882565b60405162000200919062001743565b60405180910390f35b3480156200021657600080fd5b506200023560048036038101906200022f919062001829565b620008cb565b005b3480156200024457600080fd5b506200026360048036038101906200025d9190620016eb565b62000a03565b604051620002729190620018ac565b60405180910390f35b620002996004803603810190620002939190620018c9565b62000a58565b005b348015620002a857600080fd5b50620002b362001125565b604051620002c29190620018ac565b60405180910390f35b348015620002d857600080fd5b50620002f76004803603810190620002f19190620017f7565b6200114e565b60405162000306919062001743565b60405180910390f35b3480156200031c57600080fd5b50620003276200119a565b60405162000336919062001743565b60405180910390f35b3480156200034c57600080fd5b506200036b6004803603810190620003659190620017f7565b620011a4565b6040516200037a919062001743565b60405180910390f35b3480156200039057600080fd5b50620003af6004803603810190620003a99190620017f7565b620011c2565b604051620003be919062001743565b60405180910390f35b348015620003d457600080fd5b50620003f36004803603810190620003ed919062001925565b620011da565b604051620004029190620018ac565b60405180910390f35b3480156200041857600080fd5b5062000437600480360381019062000431919062001760565b62001258565b6040516200044c979695949392919062001a6a565b60405180910390f35b3480156200046257600080fd5b506200048160048036038101906200047b9190620016eb565b6200136a565b60405162000490919062001743565b60405180910390f35b348015620004a657600080fd5b50620004c56004803603810190620004bf919062001760565b620013c1565b604051620004d49190620018ac565b60405180910390f35b6000838333426001543087604051620004f69062001401565b62000508979695949392919062001aee565b604051809103906000f08015801562000525573d6000803e3d6000fd5b509050836002600060015481526020019081526020016000206000019080519060200190620005569291906200140f565b503360026000600154815260200190815260200160002060010160006101000a81548173ffffffffffffffffffffffffffffffffffffffff021916908373ffffffffffffffffffffffffffffffffffffffff1602179055508260026000600154815260200190815260200160002060020181905550816002600060015481526020019081526020016000206003018190555042600260006001548152602001908152602001600020600401819055508060026000600154815260200190815260200160002060060160006101000a81548173ffffffffffffffffffffffffffffffffffffffff021916908373ffffffffffffffffffffffffffffffffffffffff16021790555080600360003373ffffffffffffffffffffffffffffffffffffffff1673ffffffffffffffffffffffffffffffffffffffff1681526020019081526020016000206001016000600360003373ffffffffffffffffffffffffffffffffffffffff1673ffffffffffffffffffffffffffffffffffffffff16815260200190815260200160002060000154815260200190815260200160002060006101000a81548173ffffffffffffffffffffffffffffffffffffffff021916908373ffffffffffffffffffffffffffffffffffffffff160217905550600360003373ffffffffffffffffffffffffffffffffffffffff1673ffffffffffffffffffffffffffffffffffffffff1681526020019081526020016000206000016000815480929190620007859062001ba1565b9190505550600154600460008373ffffffffffffffffffffffffffffffffffffffff1673ffffffffffffffffffffffffffffffffffffffff168152602001908152602001600020819055507fca5585368d85299533de15b811903fb3e0bab33615d34e80673fa2aaca328f6a600154826040516200080592919062001bef565b60405180910390a160016000815480929190620008229062001ba1565b919050555050505050565b600060026000848152602001908152602001600020600701600083815260200190815260200160002060020154905092915050565b600060026000838152602001908152602001600020600501549050919050565b6000600460008373ffffffffffffffffffffffffffffffffffffffff1673ffffffffffffffffffffffffffffffffffffffff168152602001908152602001600020549050919050565b6002600085815260200190815260200160002060060160009054906101000a900473ffffffffffffffffffffffffffffffffffffffff1673ffffffffffffffffffffffffffffffffffffffff163373ffffffffffffffffffffffffffffffffffffffff161462000972576040517f08c379a0000000000000000000000000000000000000000000000000000000008152600401620009699062001c92565b60405180910390fd5b826002600086815260200190815260200160002060010160006101000a81548173ffffffffffffffffffffffffffffffffffffffff021916908373ffffffffffffffffffffffffffffffffffffffff16021790555081600260008681526020019081526020016000206002018190555080600260008681526020019081526020016000206003018190555050505050565b600060026000848152602001908152602001600020600701600083815260200190815260200160002060010160009054906101000a900473ffffffffffffffffffffffffffffffffffffffff16905092915050565b6002600084815260200190815260200160002060060160009054906101000a900473ffffffffffffffffffffffffffffffffffffffff1673ffffffffffffffffffffffffffffffffffffffff163373ffffffffffffffffffffffffffffffffffffffff161462000aff576040517f08c379a000000000000000000000000000000000000000000000000000000000815260040162000af69062001d2a565b60405180910390fd5b600182101562000b46576040517f08c379a000000000000000000000000000000000000000000000000000000000815260040162000b3d9062001d9c565b60405180910390fd5b600260008481526020019081526020016000206003015482111562000ba2576040517f08c379a000000000000000000000000000000000000000000000000000000000815260040162000b999062001e0e565b60405180910390fd5b81600260008581526020019081526020016000206002015462000bc6919062001e30565b341462000c0a576040517f08c379a000000000000000000000000000000000000000000000000000000000815260040162000c019062001ee1565b60405180910390fd5b6000600260008581526020019081526020016000206005015490506000606460053462000c38919062001e30565b62000c44919062001f32565b90506000813462000c56919062001f6a565b905060006002600088815260200190815260200160002060010160009054906101000a900473ffffffffffffffffffffffffffffffffffffffff16905060008173ffffffffffffffffffffffffffffffffffffffff168360405162000cbb9062001fda565b60006040518083038185875af1925050503d806000811462000cfa576040519150601f19603f3d011682016040523d82523d6000602084013e62000cff565b606091505b505090508062000d46576040517f08c379a000000000000000000000000000000000000000000000000000000000815260040162000d3d9062002067565b60405180910390fd5b60008060009054906101000a900473ffffffffffffffffffffffffffffffffffffffff1673ffffffffffffffffffffffffffffffffffffffff168560405162000d8f9062001fda565b60006040518083038185875af1925050503d806000811462000dce576040519150601f19603f3d011682016040523d82523d6000602084013e62000dd3565b606091505b505090508062000e1a576040517f08c379a000000000000000000000000000000000000000000000000000000000815260040162000e119062002067565b60405180910390fd5b600260008a815260200190815260200160002060060160009054906101000a900473ffffffffffffffffffffffffffffffffffffffff16600260008b8152602001908152602001600020600701600088815260200190815260200160002060000160006101000a81548173ffffffffffffffffffffffffffffffffffffffff021916908373ffffffffffffffffffffffffffffffffffffffff16021790555086600260008b8152602001908152602001600020600701600088815260200190815260200160002060010160006101000a81548173ffffffffffffffffffffffffffffffffffffffff021916908373ffffffffffffffffffffffffffffffffffffffff16021790555034600260008b815260200190815260200160002060070160008881526020019081526020016000206003018190555087600260008b815260200190815260200160002060070160008881526020019081526020016000206004018190555042600260008b81526020019081526020016000206007016000888152602001908152602001600020600501819055506000600260008b8152602001908152602001600020600701600088815260200190815260200160002060060160006101000a81548160ff02191690836002811115620010005762000fff62002089565b5b021790555085600260008b8152602001908152602001600020600701600088815260200190815260200160002060020181905550600260008a815260200190815260200160002060050160008154809291906200105d9062001ba1565b919050555087600260008b815260200190815260200160002060030160008282546200108a919062001f6a565b925050819055507f6fedb20c925c541cccc315e3b38f2191e4d9ff9889c88faa901285edd35443908988600260008d815260200190815260200160002060070160008a815260200190815260200160002060060160009054906101000a900460ff16600281111562001101576200110062002089565b5b6040516200111293929190620020b8565b60405180910390a1505050505050505050565b60008060009054906101000a900473ffffffffffffffffffffffffffffffffffffffff16905090565b6000600360008373ffffffffffffffffffffffffffffffffffffffff1673ffffffffffffffffffffffffffffffffffffffff168152602001908152602001600020600001549050919050565b6000600154905090565b60036020528060005260406000206000915090508060000154905081565b60046020528060005260406000206000915090505481565b6000600360008473ffffffffffffffffffffffffffffffffffffffff1673ffffffffffffffffffffffffffffffffffffffff168152602001908152602001600020600101600083815260200190815260200160002060009054906101000a900473ffffffffffffffffffffffffffffffffffffffff16905092915050565b60026020528060005260406000206000915090508060000180546200127d9062002124565b80601f0160208091040260200160405190810160405280929190818152602001828054620012ab9062002124565b8015620012fc5780601f10620012d057610100808354040283529160200191620012fc565b820191906000526020600020905b815481529060010190602001808311620012de57829003601f168201915b5050505050908060010160009054906101000a900473ffffffffffffffffffffffffffffffffffffffff16908060020154908060030154908060040154908060050154908060060160009054906101000a900473ffffffffffffffffffffffffffffffffffffffff16905087565b600060026000848152602001908152602001600020600701600083815260200190815260200160002060060160009054906101000a900460ff166002811115620013b957620013b862002089565b5b905092915050565b60006002600083815260200190815260200160002060060160009054906101000a900473ffffffffffffffffffffffffffffffffffffffff169050919050565b611178806200215b83390190565b8280546200141d9062002124565b90600052602060002090601f0160209004810192826200144157600085556200148d565b82601f106200145c57805160ff19168380011785556200148d565b828001600101855582156200148d579182015b828111156200148c5782518255916020019190600101906200146f565b5b5090506200149c9190620014a0565b5090565b5b80821115620014bb576000816000905550600101620014a1565b5090565b6000604051905090565b600080fd5b600080fd5b600080fd5b600080fd5b6000601f19601f8301169050919050565b7f4e487b7100000000000000000000000000000000000000000000000000000000600052604160045260246000fd5b6200152882620014dd565b810181811067ffffffffffffffff821117156200154a5762001549620014ee565b5b80604052505050565b60006200155f620014bf565b90506200156d82826200151d565b919050565b600067ffffffffffffffff82111562001590576200158f620014ee565b5b6200159b82620014dd565b9050602081019050919050565b82818337600083830152505050565b6000620015ce620015c88462001572565b62001553565b905082815260208101848484011115620015ed57620015ec620014d8565b5b620015fa848285620015a8565b509392505050565b600082601f8301126200161a5762001619620014d3565b5b81356200162c848260208601620015b7565b91505092915050565b6000819050919050565b6200164a8162001635565b81146200165657600080fd5b50565b6000813590506200166a816200163f565b92915050565b6000806000606084860312156200168c576200168b620014c9565b5b600084013567ffffffffffffffff811115620016ad57620016ac620014ce565b5b620016bb8682870162001602565b9350506020620016ce8682870162001659565b9250506040620016e18682870162001659565b9150509250925092565b60008060408385031215620017055762001704620014c9565b5b6000620017158582860162001659565b9250506020620017288582860162001659565b9150509250929050565b6200173d8162001635565b82525050565b60006020820190506200175a600083018462001732565b92915050565b600060208284031215620017795762001778620014c9565b5b6000620017898482850162001659565b91505092915050565b600073ffffffffffffffffffffffffffffffffffffffff82169050919050565b6000620017bf8262001792565b9050919050565b620017d181620017b2565b8114620017dd57600080fd5b50565b600081359050620017f181620017c6565b92915050565b60006020828403121562001810576200180f620014c9565b5b60006200182084828501620017e0565b91505092915050565b60008060008060808587031215620018465762001845620014c9565b5b6000620018568782880162001659565b94505060206200186987828801620017e0565b93505060406200187c8782880162001659565b92505060606200188f8782880162001659565b91505092959194509250565b620018a681620017b2565b82525050565b6000602082019050620018c360008301846200189b565b92915050565b600080600060608486031215620018e557620018e4620014c9565b5b6000620018f58682870162001659565b9350506020620019088682870162001659565b92505060406200191b86828701620017e0565b9150509250925092565b600080604083850312156200193f576200193e620014c9565b5b60006200194f85828601620017e0565b9250506020620019628582860162001659565b9150509250929050565b600081519050919050565b600082825260208201905092915050565b60005b83811015620019a85780820151818401526020810190506200198b565b83811115620019b8576000848401525b50505050565b6000620019cb826200196c565b620019d7818562001977565b9350620019e981856020860162001988565b620019f481620014dd565b840191505092915050565b6000819050919050565b600062001a2a62001a2462001a1e8462001792565b620019ff565b62001792565b9050919050565b600062001a3e8262001a09565b9050919050565b600062001a528262001a31565b9050919050565b62001a648162001a45565b82525050565b600060e082019050818103600083015262001a86818a620019be565b905062001a9760208301896200189b565b62001aa6604083018862001732565b62001ab5606083018762001732565b62001ac4608083018662001732565b62001ad360a083018562001732565b62001ae260c083018462001a59565b98975050505050505050565b600060e082019050818103600083015262001b0a818a620019be565b905062001b1b602083018962001732565b62001b2a60408301886200189b565b62001b39606083018762001732565b62001b48608083018662001732565b62001b5760a08301856200189b565b62001b6660c083018462001732565b98975050505050505050565b7f4e487b7100000000000000000000000000000000000000000000000000000000600052601160045260246000fd5b600062001bae8262001635565b91507fffffffffffffffffffffffffffffffffffffffffffffffffffffffffffffffff82141562001be45762001be362001b72565b5b600182019050919050565b600060408201905062001c06600083018562001732565b62001c1560208301846200189b565b9392505050565b7f46756e6369746f6e206e6f742063616c6c65642066726f6d204974656d20436f60008201527f6e74726163742e00000000000000000000000000000000000000000000000000602082015250565b600062001c7a60278362001977565b915062001c878262001c1c565b604082019050919050565b6000602082019050818103600083015262001cad8162001c6b565b9050919050565b7f46756e6374696f6e206e6f742063616c6c65642066726f6d204974656d20436f60008201527f6e74726163742e00000000000000000000000000000000000000000000000000602082015250565b600062001d1260278362001977565b915062001d1f8262001cb4565b604082019050919050565b6000602082019050818103600083015262001d458162001d03565b9050919050565b7f4e6565642031206f72206d6f726520746f2070757263686173652e0000000000600082015250565b600062001d84601b8362001977565b915062001d918262001d4c565b602082019050919050565b6000602082019050818103600083015262001db78162001d75565b9050919050565b7f4e6f7420656e6f75676820696e2073746f636b2e000000000000000000000000600082015250565b600062001df660148362001977565b915062001e038262001dbe565b602082019050919050565b6000602082019050818103600083015262001e298162001de7565b9050919050565b600062001e3d8262001635565b915062001e4a8362001635565b9250817fffffffffffffffffffffffffffffffffffffffffffffffffffffffffffffffff048311821515161562001e865762001e8562001b72565b5b828202905092915050565b7f4d75737420706179207370656369666965642070726963652e00000000000000600082015250565b600062001ec960198362001977565b915062001ed68262001e91565b602082019050919050565b6000602082019050818103600083015262001efc8162001eba565b9050919050565b7f4e487b7100000000000000000000000000000000000000000000000000000000600052601260045260246000fd5b600062001f3f8262001635565b915062001f4c8362001635565b92508262001f5f5762001f5e62001f03565b5b828204905092915050565b600062001f778262001635565b915062001f848362001635565b92508282101562001f9a5762001f9962001b72565b5b828203905092915050565b600081905092915050565b50565b600062001fc260008362001fa5565b915062001fcf8262001fb0565b600082019050919050565b600062001fe78262001fb3565b9150819050919050565b7f5061796d656e7420646964206e6f742073656e64207375636365737366756c6c60008201527f792e20506c656173652074727920616761696e2e000000000000000000000000602082015250565b60006200204f60348362001977565b91506200205c8262001ff1565b604082019050919050565b60006020820190508181036000830152620020828162002040565b9050919050565b7f4e487b7100000000000000000000000000000000000000000000000000000000600052602160045260246000fd5b6000606082019050620020cf600083018662001732565b620020de60208301856200189b565b620020ed604083018462001732565b949350505050565b7f4e487b7100000000000000000000000000000000000000000000000000000000600052602260045260246000fd5b600060028204905060018216806200213d57607f821691505b60208210811415620021545762002153620020f5565b5b5091905056fe60806040523480156200001157600080fd5b5060405162001178380380620011788339818101604052810190620000379190620003e8565b86600290805190602001906200004f929190620000fb565b50856001819055508260008190555081600460006101000a81548173ffffffffffffffffffffffffffffffffffffffff021916908373ffffffffffffffffffffffffffffffffffffffff1602179055508060038190555084600660006101000a81548173ffffffffffffffffffffffffffffffffffffffff021916908373ffffffffffffffffffffffffffffffffffffffff16021790555083600581905550505050505050506200051f565b8280546200010990620004e9565b90600052602060002090601f0160209004810192826200012d576000855562000179565b82601f106200014857805160ff191683800117855562000179565b8280016001018555821562000179579182015b82811115620001785782518255916020019190600101906200015b565b5b5090506200018891906200018c565b5090565b5b80821115620001a75760008160009055506001016200018d565b5090565b6000604051905090565b600080fd5b600080fd5b600080fd5b600080fd5b6000601f19601f8301169050919050565b7f4e487b7100000000000000000000000000000000000000000000000000000000600052604160045260246000fd5b6200021482620001c9565b810181811067ffffffffffffffff82111715620002365762000235620001da565b5b80604052505050565b60006200024b620001ab565b905062000259828262000209565b919050565b600067ffffffffffffffff8211156200027c576200027b620001da565b5b6200028782620001c9565b9050602081019050919050565b60005b83811015620002b457808201518184015260208101905062000297565b83811115620002c4576000848401525b50505050565b6000620002e1620002db846200025e565b6200023f565b9050828152602081018484840111156200030057620002ff620001c4565b5b6200030d84828562000294565b509392505050565b600082601f8301126200032d576200032c620001bf565b5b81516200033f848260208601620002ca565b91505092915050565b6000819050919050565b6200035d8162000348565b81146200036957600080fd5b50565b6000815190506200037d8162000352565b92915050565b600073ffffffffffffffffffffffffffffffffffffffff82169050919050565b6000620003b08262000383565b9050919050565b620003c281620003a3565b8114620003ce57600080fd5b50565b600081519050620003e281620003b7565b92915050565b600080600080600080600060e0888a0312156200040a5762000409620001b5565b5b600088015167ffffffffffffffff8111156200042b576200042a620001ba565b5b620004398a828b0162000315565b97505060206200044c8a828b016200036c565b96505060406200045f8a828b01620003d1565b9550506060620004728a828b016200036c565b9450506080620004858a828b016200036c565b93505060a0620004988a828b01620003d1565b92505060c0620004ab8a828b016200036c565b91505092959891949750929550565b7f4e487b7100000000000000000000000000000000000000000000000000000000600052602260045260246000fd5b600060028204905060018216806200050257607f821691505b60208210811415620005195762000518620004ba565b5b50919050565b610c49806200052f6000396000f3fe6080604052600436106100595760003560e01c806310cb4b1a1461006957806341bfe12e146100945780635ea5cabe146100bd5780639a937afb146100e8578063c290d69114610113578063ec52aa721461012f5761005a565b5b34801561006657600080fd5b50005b34801561007557600080fd5b5061007e61015a565b60405161008b9190610656565b60405180910390f35b3480156100a057600080fd5b506100bb60048036038101906100b69190610700565b610164565b005b3480156100c957600080fd5b506100d26103ae565b6040516100df9190610800565b60405180910390f35b3480156100f457600080fd5b506100fd610440565b60405161010a9190610831565b60405180910390f35b61012d6004803603810190610128919061084c565b61046a565b005b34801561013b57600080fd5b50610144610633565b6040516101519190610656565b60405180910390f35b6000600154905090565b600660009054906101000a900473ffffffffffffffffffffffffffffffffffffffff1673ffffffffffffffffffffffffffffffffffffffff163373ffffffffffffffffffffffffffffffffffffffff16146101f4576040517f08c379a00000000000000000000000000000000000000000000000000000000081526004016101eb906108eb565b60405180910390fd5b6000600460009054906101000a900473ffffffffffffffffffffffffffffffffffffffff1673ffffffffffffffffffffffffffffffffffffffff16600086868686604051602401610248949392919061090b565b6040516020818303038152906040527f41bfe12e000000000000000000000000000000000000000000000000000000007bffffffffffffffffffffffffffffffffffffffffffffffffffffffff19166020820180517bffffffffffffffffffffffffffffffffffffffffffffffffffffffff83818316178352505050506040516102d29190610997565b60006040518083038185875af1925050503d806000811461030f576040519150601f19603f3d011682016040523d82523d6000602084013e610314565b606091505b5050905080610358576040517f08c379a000000000000000000000000000000000000000000000000000000000815260040161034f90610a20565b60405180910390fd5b83600660006101000a81548173ffffffffffffffffffffffffffffffffffffffff021916908373ffffffffffffffffffffffffffffffffffffffff16021790555082600181905550816003819055505050505050565b6060600280546103bd90610a6f565b80601f01602080910402602001604051908101604052809291908181526020018280546103e990610a6f565b80156104365780601f1061040b57610100808354040283529160200191610436565b820191906000526020600020905b81548152906001019060200180831161041957829003601f168201915b5050505050905090565b6000600660009054906101000a900473ffffffffffffffffffffffffffffffffffffffff16905090565b60018110156104ae576040517f08c379a00000000000000000000000000000000000000000000000000000000081526004016104a590610aed565b60405180910390fd5b6003548111156104f3576040517f08c379a00000000000000000000000000000000000000000000000000000000081526004016104ea90610b59565b60405180910390fd5b6000600460009054906101000a900473ffffffffffffffffffffffffffffffffffffffff1673ffffffffffffffffffffffffffffffffffffffff1634600054843360405160240161054693929190610b79565b6040516020818303038152906040527f74ff68b6000000000000000000000000000000000000000000000000000000007bffffffffffffffffffffffffffffffffffffffffffffffffffffffff19166020820180517bffffffffffffffffffffffffffffffffffffffffffffffffffffffff83818316178352505050506040516105d09190610997565b60006040518083038185875af1925050503d806000811461060d576040519150601f19603f3d011682016040523d82523d6000602084013e610612565b606091505b5050905081600360008282546106289190610bdf565b925050819055505050565b6000600354905090565b6000819050919050565b6106508161063d565b82525050565b600060208201905061066b6000830184610647565b92915050565b600080fd5b61067f8161063d565b811461068a57600080fd5b50565b60008135905061069c81610676565b92915050565b600073ffffffffffffffffffffffffffffffffffffffff82169050919050565b60006106cd826106a2565b9050919050565b6106dd816106c2565b81146106e857600080fd5b50565b6000813590506106fa816106d4565b92915050565b6000806000806080858703121561071a57610719610671565b5b60006107288782880161068d565b9450506020610739878288016106eb565b935050604061074a8782880161068d565b925050606061075b8782880161068d565b91505092959194509250565b600081519050919050565b600082825260208201905092915050565b60005b838110156107a1578082015181840152602081019050610786565b838111156107b0576000848401525b50505050565b6000601f19601f8301169050919050565b60006107d282610767565b6107dc8185610772565b93506107ec818560208601610783565b6107f5816107b6565b840191505092915050565b6000602082019050818103600083015261081a81846107c7565b905092915050565b61082b816106c2565b82525050565b60006020820190506108466000830184610822565b92915050565b60006020828403121561086257610861610671565b5b60006108708482850161068d565b91505092915050565b7f596f7520646f206e6f7420686176652061636365737320746f2065646974207460008201527f686973206974656d2e0000000000000000000000000000000000000000000000602082015250565b60006108d5602983610772565b91506108e082610879565b604082019050919050565b60006020820190508181036000830152610904816108c8565b9050919050565b60006080820190506109206000830187610647565b61092d6020830186610822565b61093a6040830185610647565b6109476060830184610647565b95945050505050565b600081519050919050565b600081905092915050565b600061097182610950565b61097b818561095b565b935061098b818560208601610783565b80840191505092915050565b60006109a38284610966565b915081905092915050565b7f43616c6c20776173206e6f74207375636365737366756c2e20506c656173652060008201527f74727920616761696e2e00000000000000000000000000000000000000000000602082015250565b6000610a0a602a83610772565b9150610a15826109ae565b604082019050919050565b60006020820190508181036000830152610a39816109fd565b9050919050565b7f4e487b7100000000000000000000000000000000000000000000000000000000600052602260045260246000fd5b60006002820490506001821680610a8757607f821691505b60208210811415610a9b57610a9a610a40565b5b50919050565b7f4e6565642031206f72206d6f726520746f2070757263686173652e0000000000600082015250565b6000610ad7601b83610772565b9150610ae282610aa1565b602082019050919050565b60006020820190508181036000830152610b0681610aca565b9050919050565b7f4e6f7420656e6f75676820696e2073746f636b2e000000000000000000000000600082015250565b6000610b43601483610772565b9150610b4e82610b0d565b602082019050919050565b60006020820190508181036000830152610b7281610b36565b9050919050565b6000606082019050610b8e6000830186610647565b610b9b6020830185610647565b610ba86040830184610822565b949350505050565b7f4e487b7100000000000000000000000000000000000000000000000000000000600052601160045260246000fd5b6000610bea8261063d565b9150610bf58361063d565b925082821015610c0857610c07610bb0565b5b82820390509291505056fea26469706673582212201649db2ead36d628d5b0a6a81822e4d099fbe15c8185ab64d93528dddfc45adf64736f6c634300080a0033a26469706673582212200ba7da290ab3bec30d845d3e46eff684e3f49d4d84b079ae47c8906081d240ee64736f6c634300080a0033",
  "immutableReferences": {},
  "source": "pragma solidity ^0.8.7;\r\nimport './Ownable.sol';\r\nimport './Item.sol';\r\n\r\ncontract Store is Ownable {\r\n    uint index;\r\n    enum SupplyStatus{ Purchased, InTransit, Delivered }\r\n\r\n    event ItemEvent(uint _itemIndex, address _itemAddress);\r\n    event PaymentEvent(uint _itemIndex, address _buyerAddr, uint _status);\r\n\r\n    struct S_Payment {\r\n        address _item;\r\n        address _buyer;\r\n        uint _index;\r\n        uint _value;\r\n        uint _quantity;\r\n        uint _timePurchased;\r\n        Store.SupplyStatus _status;\r\n    }\r\n\r\n    struct S_Item {\r\n        string _identifier;\r\n        address _itemOwner;\r\n        uint _price;\r\n        uint _quantity;\r\n        uint _timeCreated;\r\n        uint _purchases;\r\n        Item _item;\r\n        mapping(uint => S_Payment) _payments;\r\n    }\r\n\r\n    struct S_Profile {\r\n        uint _itemsOwned;\r\n        mapping(uint => address) _items;\r\n    }\r\n\r\n    mapping(uint => S_Item) public items;\r\n    mapping(address => S_Profile) public profiles;\r\n    mapping(address => uint) public itemIndex;\r\n\r\n    function createItem(string memory _name, uint _price, uint _quantity) public {\r\n        Item item = new Item(_name, _price, msg.sender, block.timestamp, index, address(this), _quantity);\r\n\r\n        items[index]._identifier = _name;\r\n        items[index]._itemOwner = msg.sender;\r\n        items[index]._price = _price;\r\n        items[index]._quantity = _quantity;\r\n        items[index]._timeCreated = block.timestamp;\r\n        items[index]._item = item;\r\n\r\n        profiles[msg.sender]._items[profiles[msg.sender]._itemsOwned] = address(item);\r\n        profiles[msg.sender]._itemsOwned++;\r\n\r\n        itemIndex[address(item)] = index;\r\n\r\n        emit ItemEvent(index, address(item));\r\n        index++;\r\n    }\r\n\r\n    function triggerPayment(uint _itemIndex, uint _quantity, address _buyer) public payable {\r\n        require(msg.sender == address(items[_itemIndex]._item), \"Function not called from Item Contract.\");\r\n        require(_quantity >= 1, \"Need 1 or more to purchase.\");\r\n        require(_quantity <= items[_itemIndex]._quantity, \"Not enough in stock.\");\r\n        require(msg.value == items[_itemIndex]._price * _quantity, \"Must pay specified price.\"); \r\n\r\n        uint purchaseIndex = items[_itemIndex]._purchases;\r\n        uint comission = msg.value * 5 / 100;\r\n        uint itemOwnerPay = msg.value - comission;\r\n        address itemOwner = items[_itemIndex]._itemOwner;\r\n\r\n        (bool itemOwnerSuccess, ) = itemOwner.call{ value: itemOwnerPay }('');\r\n        require(itemOwnerSuccess, \"Payment did not send successfully. Please try again.\");\r\n        (bool ownerSuccess, ) = owner.call{ value: comission }('');\r\n        require(ownerSuccess, \"Payment did not send successfully. Please try again.\");\r\n\r\n        items[_itemIndex]._payments[purchaseIndex]._item = address(items[_itemIndex]._item);\r\n        items[_itemIndex]._payments[purchaseIndex]._buyer = _buyer;\r\n        items[_itemIndex]._payments[purchaseIndex]._value = msg.value;\r\n        items[_itemIndex]._payments[purchaseIndex]._quantity = _quantity;\r\n        items[_itemIndex]._payments[purchaseIndex]._timePurchased = block.timestamp;\r\n        items[_itemIndex]._payments[purchaseIndex]._status = SupplyStatus.Purchased;\r\n        items[_itemIndex]._payments[purchaseIndex]._index = purchaseIndex;\r\n\r\n        items[_itemIndex]._purchases++;\r\n        items[_itemIndex]._quantity -= _quantity;\r\n\r\n        emit PaymentEvent(_itemIndex, _buyer, uint(items[_itemIndex]._payments[purchaseIndex]._status));\r\n    }\r\n\r\n    function editItem(uint _index, address _itemOwner, uint _price, uint _quantity) public {\r\n        require(msg.sender == address(items[_index]._item), \"Funciton not called from Item Contract.\");\r\n        items[_index]._itemOwner = _itemOwner;\r\n        items[_index]._price = _price;\r\n        items[_index]._quantity = _quantity;\r\n    }\r\n\r\n    function returnOwner() public view returns(address) {\r\n        return owner;\r\n    }\r\n\r\n    function returnItemsOwnedByAddress(address _itemOwner, uint _index) public view returns(address) {\r\n        return profiles[_itemOwner]._items[_index];\r\n    }\r\n\r\n    function returnItemsOwnedTotal(address _itemOwner) public view returns(uint) {\r\n        return profiles[_itemOwner]._itemsOwned;\r\n    }\r\n\r\n    function returnItemIndex(address _item) public view returns(uint) {\r\n        return itemIndex[_item];\r\n    }\r\n\r\n    function returnItemPurchases(uint _index) public view returns(uint) {\r\n        return items[_index]._purchases;\r\n    }\r\n\r\n    function returnOrderStatus(uint _itemIndex, uint _transactionIndex) public view returns(uint) {\r\n        return uint(items[_itemIndex]._payments[_transactionIndex]._status);\r\n    }\r\n    \r\n    function returnBuyerAddress(uint _itemIndex, uint _transactionIndex) public view returns(address) {\r\n        return items[_itemIndex]._payments[_transactionIndex]._buyer;\r\n    }\r\n\r\n    function returnIndex() public view returns(uint) {\r\n        return index;\r\n    }\r\n\r\n    function returnItemAtIndex(uint _index) public view returns(address) {\r\n        return address(items[_index]._item);\r\n    }\r\n\r\n    function returnPaymentIndex(uint _itemIndex, uint _purchaseIndex) public view returns(uint) {\r\n        return items[_itemIndex]._payments[_purchaseIndex]._index;\r\n    }\r\n}",
  "sourcePath": "C:\\Users\\dernl\\Documents\\Projects\\Solidity\\learning\\testProject\\react\\contracts\\Store.sol",
  "compiler": {
    "name": "solc",
    "version": "0.8.10+commit.fc410830.Emscripten.clang"
  },
  "schemaVersion": "3.4.3",
  "updatedAt": "2021-12-01T08:52:48.624Z",
  "networkType": "ethereum",
  "devdoc": {
    "kind": "dev",
    "methods": {},
    "version": 1
  },
  "userdoc": {
    "kind": "user",
    "methods": {},
    "version": 1
  }
}