{
  "contractName": "TestStore",
  "abi": [
    {
      "inputs": [],
      "name": "sendMoney",
      "outputs": [],
      "stateMutability": "payable",
      "type": "function",
      "payable": true
    },
    {
      "inputs": [],
      "name": "showOwner",
      "outputs": [
        {
          "internalType": "address",
          "name": "",
          "type": "address"
        }
      ],
      "stateMutability": "view",
      "type": "function",
      "constant": true
    }
  ],
  "bytecode": "0x608060405234801561001057600080fd5b50336000806101000a81548173ffffffffffffffffffffffffffffffffffffffff021916908373ffffffffffffffffffffffffffffffffffffffff1602179055506101f4806100606000396000f3fe6080604052600436106100295760003560e01c8063cbedbf5a1461002e578063ded9468814610038575b600080fd5b610036610063565b005b34801561004457600080fd5b5061004d6100f3565b60405161005a919061015d565b60405180910390f35b60008060009054906101000a900473ffffffffffffffffffffffffffffffffffffffff1673ffffffffffffffffffffffffffffffffffffffff16346040516100aa906101a9565b60006040518083038185875af1925050503d80600081146100e7576040519150601f19603f3d011682016040523d82523d6000602084013e6100ec565b606091505b5050905050565b60008060009054906101000a900473ffffffffffffffffffffffffffffffffffffffff16905090565b600073ffffffffffffffffffffffffffffffffffffffff82169050919050565b60006101478261011c565b9050919050565b6101578161013c565b82525050565b6000602082019050610172600083018461014e565b92915050565b600081905092915050565b50565b6000610193600083610178565b915061019e82610183565b600082019050919050565b60006101b482610186565b915081905091905056fea2646970667358221220680fb97ae52dcad5b3026097e08e36033dd0a126105e755aae78d448d1afe63a64736f6c634300080a0033",
  "immutableReferences": {},
  "source": "pragma solidity ^0.8.7;\r\n\r\ncontract Ownable {\r\n    address owner;\r\n    \r\n    constructor() {\r\n        owner = msg.sender;\r\n    }\r\n}\r\n\r\ncontract TestStore is Ownable {\r\n    function sendMoney() public payable {\r\n        (bool success, ) = owner.call{value: msg.value}('');\r\n    }\r\n    \r\n    function showOwner() public view returns(address) {\r\n        return owner;\r\n    }\r\n}",
  "sourcePath": "C:\\Users\\dernl\\Documents\\Projects\\Solidity\\learning\\testProject\\react\\contracts\\TestStore.sol",
  "compiler": {
    "name": "solc",
    "version": "0.8.10+commit.fc410830.Emscripten.clang"
  },
  "schemaVersion": "3.4.3",
  "updatedAt": "2021-11-10T15:23:46.638Z",
  "networkType": "ethereum",
  "devdoc": {
    "kind": "dev",
    "methods": {},
    "version": 1
  },
  "userdoc": {
    "kind": "user",
    "methods": {},
    "version": 1
  }
}